:020000040800F2
:10000000501E00200101000885110008871100081A
:100010008B1100088F1100089311000800000000E8
:100020000000000000000000000000009711000820
:1000300099110008000000009B1100089D110008A4
:100040001B0100081B0100081B010008CB3C000835
:100050001B0100081B0100081B0100081B01000810
:100060001B0100081B0100081B0100081B01000800
:100070001B0100081B0100081B0100081B010008F0
:100080001B0100081B0100081B0100081B010008E0
:100090001B0100081B0100081B0100081B010008D0
:1000A0001B0100081B0100081B0100081B010008C0
:1000B000ED0E0008290D0008070F00081B010008BD
:1000C0001B0100081B0100081B0100081B010008A0
:1000D0001B01000869220008E9230008D527000851
:1000E0001B0100081B0100081B010008DFF80CD0F1
:1000F00007F0A8FF0048004737010008501E002005
:100100000648804706480047FEE7FEE7FEE7FEE7B1
:10011000FEE7FEE7FEE7FEE7FEE7FEE7A779000859
:10012000ED00000801B502E00098401E0090009824
:100130000028F9D108BD00F0D6F82048806940F0C9
:1001400004001E4988610846806940F0010088610A
:100150001B48006820F00F00194908600846006835
:1001600040F00800086000F0BAF801F020FC02F04E
:10017000E0F800F0AEFD40F27121042004F094FF9D
:1001800003F012F9FF20FFF7CDFF03F07BFC02F034
:1001900019FF03F020F803F00FF800F0FDFE002037
:1001A000084908702021084805F0ABFB04E0074827
:1001B000007808B900F078FCF9E700000010024070
:1001C00000080140C8010020000C01406601002029
:1001D00008B50121042005F0C7FD0121082005F024
:1001E000C3FD0120ADF8000010208DF803000320AE
:1001F0008DF802006946BB4805F0D8FA4FF400407C
:10020000ADF8000010208DF8030003208DF80200E7
:100210006946B54805F0CAFA1020ADF800008DF81F
:10022000030003208DF802006946AE4805F0BEFACF
:100230004FF40060ADF8000010208DF8030003209B
:100240008DF802006946A74805F0B0FA2020ADF805
:10025000000010208DF8030003208DF8020069468D
:10026000A14805F0A3FA4FF48050ADF800004820F3
:100270008DF8030003208DF8020069469A4805F0C6
:1002800095FA4FF48040ADF8000048208DF8030047
:1002900003208DF802006946934805F087FA102183
:1002A000904805F030FB4FF400618E4805F02BFBC1
:1002B0008E480078012808D1C1038B4805F021FB46
:1002C0000121884805F01DFB08E04FF400418648F5
:1002D00005F019FB0121834805F015FB08BD10B599
:1002E000FFF776FF10BD1CB50020019000908048FC
:1002F000006840F001007E490860084640687D497A
:1003000008407B494860084600687B4908407849B6
:1003100008600846006820F48020086008464068AD
:1003200020F4FE004860002088600846006840F421
:100330008030086000BF6E48006800F40030009014
:100340000198401C0190009818B90198B0F5A06F71
:10035000F1D16748006810F4003F02D001200090FE
:1003600001E0002000900098012843D16348006814
:1003700040F01000614908600846006820F0030062
:1003800008600846006840F001000860584840686E
:10039000574948600846406848600846406840F44D
:1003A000806048600846406820F47C104860084639
:1003B000406840F4881048600846006840F080704B
:1003C000086000BF4A48006810F0007FFAD0484833
:1003D000406820F00300464948600846406840F005
:1003E0000200486000BF4248406800F00C00082846
:1003F000F9D103E001E003F009FCFCE71CBD1CB5EA
:100400000020019000903A48006840F0010038490F
:100410000860084640683749084035494860084642
:10042000006835490840324908600846006820F4F1
:10043000802008600846406820F4FE0048600020E4
:1004400088600846006840F48030086000BF284893
:10045000006800F4003000900198401C0190009862
:1004600018B90198B0F5A06FF1D12148006810F4D7
:10047000003F02D00120009001E000200090009891
:10048000012829D11D48006840F010001B49086070
:100490000846006820F0030008600846006808600D
:1004A000134840681249486008464068486008465A
:1004B000406848600846406820F0030048600846ED
:1004C000406840F00100486000BF0948406800F003
:1004D0000C000428F9D103E001E003F097FBFCE7EE
:1004E0001CBD000000080140000C01406601002016
:1004F000001002400000FFF8FFFFF6FE002002405F
:1005000070B502460D464FF6FF7141F2210417E027
:10051000012312E011F4004F05D04FF6FF7000EAFE
:100520004101614003E04FF6FF7000EA410110789D
:10053000184200D061405806030E002BEAD1521C2D
:100540002800A5F10106F5B2E2D1C84380B270BD22
:10055000F0B50346F84A1588F84A1178002092E071
:10056000082803DA0022F64C22548AE0082818DB17
:10057000202816DAA0F10804E61704EB5676F610E8
:10058000F04FBE5D2246D71702EB5777FF10A2EB64
:10059000C707C7F107073E4106F00106E84F3E5482
:1005A0006FE0202813DB282811DAA0F12002D417ED
:1005B00002EB5474E410A2EBC404C4F10706E24C4D
:1005C0002478344104F00104DD4E345459E02828E5
:1005D00018DB282202EBC102824213DDA0F12804BD
:1005E000E61704EB5676F6109E5D2246D71702EB0F
:1005F0005777FF10A2EBC7073E4106F00106D04F28
:100600003E543EE0282202EBC102824218DC28223E
:1006100002EBC1021032824212DDA0F12804A4EBE9
:10062000C102D41702EB14742411A2EB0414C4F118
:100630000F0445FA04F404F00104C14E345420E0E0
:10064000282202EBC102103282421ADC282202EB7D
:10065000C1021832824214DDA0F12804A4EBC104C7
:10066000A4F11002D41702EB5474E410A2EBC404FA
:10067000C4F10706B44C2478344104F00104B04EB0
:100680003454421CD0B2372202EBC10218328242EB
:100690003FF766AFF0BD30B5A84C2478102505EBC8
:1006A000C402002105E0A64C645CA84D6C544C1CAF
:1006B000A1B22829F7DB28212C202AE005E0A04C54
:1006C000645CA24D6C544C1CA1B2A1F12804032C13
:1006D000F5DD9B4C645C9D4D2C54041F2C5D012C5E
:1006E00013D1C41E2C5D012C0FD1841E2C5D012C56
:1006F0000BD1441E2C5D012C07D12C46245C012C0F
:1007000003D1441CA0B200242C544C1CA1B2441CA4
:10071000A0B2A1F128049442D0DB07E0884C645CCD
:100720008A4D2C544C1CA1B2441CA0B202F12804E6
:10073000A14202DB0834A142F0DB0346184630BD7B
:1007400008200FE08149095C31B9411E7F4A515CA4
:10075000C1F10101115403E0411E7C4A515C115466
:10076000411C88B2FF28EDDD704710B500F0C6FFD0
:10077000724801787648FFF7C3FE6F4908807448D5
:10078000FFF7E6FEFFF787FF72490870FFF7D8FF13
:10079000002424E04CB96D49601C095C6B48005D85
:1007A00001EB40006C49085517E0002C12DD694848
:1007B000007884420EDC601E6449085C8100634856
:1007C000005D01EB4001614A601C105C0844624915
:1007D000085502E0082060490855601C84B2FF2CCF
:1007E000D8DD10BD10B500F0F6FF54480178584828
:1007F000FFF786FE504908805548FFF7A9FEFFF72E
:100800004AFF56490870FFF79BFF002424E04CB9CB
:100810004E49601C095C4D48005D01EB40005049A9
:10082000085517E0002C12DD4C48007884420EDC9D
:10083000601E4649085C81004448005D01EB4001B0
:10084000424A601C105C08444549085502E00820F3
:1008500043490855601C84B2FF2CD8DD10BD10B58B
:1008600000F0E0FF354801783948FFF749FE32498A
:1008700008803748FFF76CFEFFF70DFF3949087015
:10088000FFF75EFF002424E04CB93049601C095C8E
:100890002E48005D01EB40003349085517E0002C5D
:1008A00012DD3048007884420EDC601E2749085C67
:1008B00081002648005D01EB4001244A601C105C69
:1008C00008442949085502E0082027490855601CBA
:1008D00084B2FF2CD8DD10BD70B5002400250026A1
:1008E00022480078012868D140F2FF402049088062
:1008F000FFF73BFF00BF5DE02046E11704EB11610D
:100900000912A4EB01218DB2E11704EB1161C1F3CF
:100910000F2626B1012E2FD0022E47D139E00D48E7
:100920000078854204DA0C48405D1249085502E01F
:100930001020104908553AE0AC0100208401002045
:10094000F8130020A8010020AB010020F8150020BA
:1009500060020020B20100208D020020B3010020BF
:100960008D030020B40100208D0400205A010020D6
:1009700092010020E010002076480078854204DAD9
:100980007548405D7549085502E0102073490855C7
:100990000DE073480078854204DA7248405D6F4983
:1009A000085502E010206D49085500E000BF00BF67
:1009B000601C84B2FF2C9FDD17E040F2FF406A49C3
:1009C0000880FFF7D2FE00240DE0684800788442DA
:1009D00004DA6748005D6149085502E010205F496C
:1009E0000855601C84B2FF2CEFDD70BD70B500248B
:1009F000002500265F48007801283CD140F6FF1012
:100A000059490880FFF7EEFEFFF729FF00BF2EE0EF
:100A10002046E11704EB11610912A4EB01218DB20C
:100A2000E11704EB1161C1F30F2616B1012E1AD1A3
:100A30000CE048480078854204DA4748405D474961
:100A4000085502E01020454908550DE0444800785B
:100A5000854204DA4348405D4049085502E01020D1
:100A60003E49085500E000BF00BF601C84B2B4F5E9
:100A7000007FCDDB17E040F2FF403B490880FFF7E5
:100A8000B1FE00240DE033480078844204DA324895
:100A9000005D3249085502E0102030490855601CBD
:100AA00084B2FF2CEFDD70BD10B53348007801280B
:100AB0004FD100203149087001202F490870C1032F
:100AC0002F4804F020FF01212E4804F01CFF0120D4
:100AD00004F0B4FF04F0C8FF2B480078401C2A49FA
:100AE00008702A48008842F22831884202DB481008
:100AF000264908800020264908701021214804F06A
:100B000002FF20211E4804F0FCFE4FF400611D4846
:100B100004F0F9FE4FF40041194804F0F4FE03F02C
:100B20006BFA02F0B9FC00F07DF81A491A4803F09C
:100B3000D1FB0020194908700F4908701849087046
:100B4000184908701849087000F047F80020174944
:100B5000088010BDB30100208D030020E0100020AC
:100B6000B40100208D04002092010020B201002079
:100B70008D0200205A01002058010020660100204B
:100B8000000C014000080140AE010020B00100202F
:100B9000C8010020E01300207B1800205B0100202A
:100BA000BC010020BB010020BA010020C2010020CE
:100BB00008B54FF4A06004F08DFA1D208DF80000F8
:100BC00003208DF8010000208DF8020001208DF82F
:100BD0000300684604F083FA08BD0EB50121022027
:100BE00005F0CFF8FFF7E4FFD64805F047FB632098
:100BF000ADF804000920ADF800000020ADF80600B3
:100C0000ADF802008DF808006946CE4805F0A1FB5A
:100C100001221146CB4805F03DFE0121C94805F0EF
:100C20001EFE0EBD10B500220121C64805F032FEA1
:100C30000021C44805F013FE10BD1FB5012104209A
:100C400005F09FF841F28730ADF8080041F61F40EB
:100C5000ADF804000020ADF80A00ADF8060001A9C7
:100C6000B94805F076FB01221146B74805F012FE9F
:100C70001E208DF8000001208DF8010000208DF865
:100C8000020001208DF80300684604F028FA1FBD19
:100C900010B50121AC4805F0E2FD10BD10B50021F2
:100CA000A94805F0DCFD10BD08B54FF4E06004F084
:100CB00011FA1C208DF8000003208DF8010004209B
:100CC0008DF8020001208DF80300684604F007FA51
:100CD00008BD0EB50121084605F053F8FFF7E4FF03
:100CE0004FF0804005F0CAFA41F28730ADF80400B9
:100CF00042F20700ADF800000020ADF80600ADF8A4
:100D0000020069464FF0804005F023FB012188076F
:100D100006F080F801221146900705F0BBFD012185
:100D2000880705F09CFD0EBD10B50121854806F031
:100D300074F800287ED0854800880A280AD18448A3
:100D4000007838B94FF40061824804F0DAFD0120E0
:100D50007F4908707D480088B0F5827F1DD17E48AC
:100D60000078D0B97D48007860B900F0ABF97C48D4
:100D70000078C0F101007A49087002F05AF9FFF7D3
:100D8000ABFD07E075480078012803D100F09AF91F
:100D9000FFF72CFE0120704908706C480088B0F500
:100DA000917F14D16F48007888B96F480078401C53
:100DB0006D490870084600781E2805D1002008708B
:100DC0001021644804F09DFD0120664908705F48C9
:100DD0000088A0F58071E5390DD1644800780128BC
:100DE00009D0002062490870624908806249088081
:100DF00001205E4908705D48007801286CD15F4889
:100E00005C4A1288805C00EB80005D4A02EB800047
:100E1000574A127830F8220001B2092000F033F965
:100E200000BF0221574805F0F6F90028F9D001214A
:100E3000554800E059E004F064FD4D48007804286E
:100E400008D100204A4908704A480088401C494996
:100E5000088004E046480078401C45490870464830
:100E60000088401C44490880084600884749098892
:100E7000884231DB00203D4908703F4908803649EF
:100E80000870334908703749087030490880334882
:100E9000007860B131480078012808D10022012192
:100EA000284805F0F7FC0021264805F0D8FC4FF44F
:100EB0000061284804F027FD1021264804F023FD96
:100EC00026480078401C254908700846007802280A
:100ED00002D101202E4908701C480088401C1B4983
:100EE00008800121174805F0A9FF10BD10B50121A8
:100EF000880705F092FF28B104F0E4F80121880783
:100F000005F09CFF10BD10B501210F4805F085FFCD
:100F1000B8B12048007840B94FF400411A4804F0B5
:100F2000F0FC01201B49087007E04FF4004116480F
:100F300004F0E9FC0020174908700121024805F07F
:100F40007DFF10BD0004004000080040C2010020E9
:100F5000BB01002000080140BC010020C8010020A6
:100F60005C010020BA010020A60100205B010020E6
:100F7000BE010020C0010020B8010020E0100020C8
:100F8000A400002000300140000C0140920100202C
:100F900058010020BD01002000B587B001210C20C0
:100FA00004F0E2FE0121080304F0DEFE0121084600
:100FB00004F0DAFE2020ADF8040003208DF80600CE
:100FC00018208DF8070001A96A4804F0EFFB4020C3
:100FD000ADF8040001A9674804F0E8FB8020ADF8F3
:100FE000040001A9634804F0E1FB0120ADF804000E
:100FF00003208DF8060010208DF8070001A95E4837
:1010000004F0D4FB01215C4804F07BFC4FF4404029
:10101000ADF808004FF48270ADF80A004FF400609C
:10102000ADF80C000020ADF80E00ADF810004FF444
:101030000070ADF812000020ADF81400ADF81600F5
:101040000720ADF8180002A94C4804F0C3FF0121A5
:101050004A4805F05CF807B000BD10B50446012110
:10106000454804F04EFC0121434804F04CFC00BF0D
:101070000221424805F0CFF80028F9D021463F4828
:1010800005F076F810BD70B505460C46002C06DB61
:1010900044EA053086B23046FFF7DFFF11E000BFBB
:1010A0000221364805F0B7F80028F9D0C4F30B0048
:1010B00040F4006605F00F0046EA00363046FFF7C0
:1010C000CCFF70BD10B54FF400710720FFF7DBFFB8
:1010D000002401E0601C84B2C82CFBDB0321052046
:1010E000FFF7D1FF002401E0601C84B2C82CFBDBB9
:1010F0001F210620FFF7C7FF002401E0601C84B217
:10110000C82CFBDB12210020FFF7BDFF01F098FF88
:101110001B480078012809D140210220FFF7B3FFC6
:1011200040F26B310120FFF7AEFF08E07C21022086
:10113000FFF7A9FF40F25B310120FFF7A4FF002475
:1011400001E0601C84B2B4F5FA6FFADB00210820DC
:10115000FFF799FF00210920FFF795FF00BF02214B
:10116000064805F058F80028F9D00121024804F09B
:10117000C8FB10BD00080140000C014000300140D8
:101180005C010020704700BFFEE700BFFEE700BF24
:10119000FEE700BFFEE770477047704770470000EA
:1011A0002DE9A04781460D46002C7DD0412E7BD1F4
:1011B0004A480078401C494908702146032000F045
:1011C00016F900EB040A504600F02DF9074606F028
:1011D000E0FD28602146052000F009F900EB040A33
:1011E000504600F020F9074606F0D3FD686020461F
:1011F00006F022FC0C282CD9237A303BE779303FCB
:1012000007EB870703EB47034FF4616703FB07F224
:1012100002EBD2734FEA630CA37A303B677A303F1C
:1012200007EB870703EB4703C3EB0313990001EBBD
:10123000D1730CEB630C237B303BE77A303F07EB39
:10124000870703EB470000EBD0730CEB63036B8164
:1012500002E04FF6FF7068812146042000F0C7F8D5
:10126000205C28722146062000F0C1F8205C6872DC
:1012700000BF00BF1A49686808601A4928680860FA
:1012800000BF00BF00BF00BF2146072000F0AFF83D
:1012900078B12146072000F0AAF800EB040A504676
:1012A00000F03CF9074600E014E006F091FD0E491D
:1012B000086001F01EFF01F012FE00214FF0804097
:1012C00005F0CDFA0948007820B9012004F0B6FBFA
:1012D00004F0CAFB0120BDE8A0870000C90100207E
:1012E00044000020480000204C000020660100203F
:1012F0002DE9FF5F814600210E460F464FF0010B9E
:10130000C8466BE098F800002E380C2829D2DFE898
:1013100000F0252806090C101316191C1F220024A2
:1013200025461EE00024C24D1BE000244FF08045FE
:1013300017E00024BF4D14E00024BF4D11E000244D
:10134000BE4D0EE00024BE4D0BE00024BD4D08E074
:101350000024BD4D05E00024BC4D02E00024BC4D3E
:1013600000BF00BF0022BA4B2046294606F04AFDC6
:1013700006D14FF0000B4FF0010A08F101082DE0F3
:10138000BBF1010F0ED10022B24B3046394606F0B8
:1013900001FC22462B46CDE9020106F054FB06462D
:1013A0000F4618E00AEB8A01480006F0D4FC02461A
:1013B0000B46CDE900012046294606F05DFC324689
:1013C0003B46CDE9020106F03EFB06460F460AEB1E
:1013D0008A004FEA400A08F1010800BF98F80000AF
:1013E00000288FD13046394604B0BDE8F09F2DE982
:1013F000F04106460D460027284606F01DFB8046B4
:1014000000240CE0285D2C2801D1781CC7B2B7421B
:1014100003D1601CC0B2BDE8F081601CC4B2444579
:10142000F0DB0020F7E72DE9F0478EB08246514609
:101430000120FFF7DCFF0546002D07DC86A006F043
:1014400041FE00208E490EB0BDE8F087681EC5B28F
:101450002A4651460AA806F0E3FA0F2D03DA0020C7
:101460000AA9485505E087A006F02CFE0020844913
:10147000E9E7002417E00AA8005D2E2811D00AA889
:10148000005D392803DC0AA8005D302809DA86A04F
:1014900006F018FE0AA98EA006F014FE0020784976
:1014A000D1E7601CC4B20AA8005D0028E3D10AA8F5
:1014B000FFF71EFF0746884600228D4B38464146FF
:1014C00006F0DAFBCDE9080106F063FC064664216C
:1014D00006FB01F006F03FFC3A464346CDE9000129
:1014E00006F055FB0022834BCDE9020106F052FBCA
:1014F000CDE90601804906FB01F006F02CFCCDE9A0
:101500000401DDE9062306F09EFACDE9080106F0A4
:1015100040FC8146484606F01EFC94E72DE9F04762
:1015200086B0814649460120FFF761FF0446002C42
:1015300004DC0020524906B0BDE8F087601EC4B24A
:101540002246494602A806F06BFA002002A9085577
:1015500002A8FFF7CDFE05460E4600223D4B284669
:10156000314606F017FB07460022314B06F084FB9C
:10157000CDE9000106F02CFC8246504606F0FCFB4B
:10158000D9E72DE9FF5F834659460120FFF72FFF7A
:101590008246AAF1010000F0FF0A5246594601A80E
:1015A00006F03EFA002001A901F80A0001A8FFF7A1
:1015B0009FFE804689460022264B4046494606F05B
:1015C000E9FA064600221A4B06F056FB044606F0DE
:1015D000FFFB0090009806F0CFFB04B0BDE8F09F41
:1015E0002DE9FE4F814649460120FFF700FF0446E2
:1015F000601EC4B222464946684606F011FA002031
:101600000DF804006846FFF773FE05460E460022FB
:10161000074B2846314606F02FFB074606F0D8FB5D
:101620008246504606F0A8FB03B0BDE8F08F0000EC
:101630000000F03F0000084000001040000014408F
:101640000000184000001C40000020400000224024
:1016500000004740000024404765745F446F756296
:101660006C655F4E756D6265723A3A2073D6D0C371
:10167000BBD3D0D5D2B5BDB6BABAC50A00000000FA
:101680008087C3C04765745F446F75626C655F4E49
:10169000756D6265723A3A206275665B695DB7C3C3
:1016A000CECAD4BDBDE70A004765745F446F75625A
:1016B0006C655F4E756D6265723A3A20627566D6EA
:1016C000D0B4E6D4DAB7C7B7A8D7D6B7FB0A0000BC
:1016D0004765745F446F75626C655F4E756D6265DA
:1016E000723A3A206275663A2025730A00000000BB
:1016F000000059400088C340C027090010B501F020
:1017000061FC48207C4908707C480068C0F3875021
:1017100048707A480068C0F387308870774800883E
:10172000C0F38710C870754800788006000E0871F5
:1017300073480088000A48717148007888717148C0
:101740000068802141EA50506B49C8716D480068BB
:10175000C0F3473008726B480088C0F347104872E6
:1017600068480078F82101EAC00067490968C1F3B8
:10177000026108446049887263480068000CC872BE
:1017800061480088000A08735F48007848735F4822
:101790000088C0F3071088735C4800780007000ECB
:1017A000C873072008748420487459480088C0F31F
:1017B00000300830887456480088C0F30710C87499
:1017C00053480078042101EB00104B49087515209F
:1017D0005049087010BD6021474A11704749096897
:1017E000C1F38751517045490968C1F38731917040
:1017F00042490988C1F38711D170404909788906A7
:10180000090E1171002007E0434A411C525C411D42
:10181000394B5A54411CC8B20F28F5DB14213D4AFC
:101820001170704760203449087034480068C0F374
:101830008750487031480068C0F3873088702F485F
:101840000088C0F38710C8702C480078012101EB94
:10185000800029490871002048713048007888715B
:101860002E484078C8712D48807808722B48C0787F
:1018700048722A48007988722848407928490978AE
:1018800008431D49C8722648407808732448807868
:1018900048732348C078887321480079C87320486A
:1018A00040792049098840EA6110134908741D48AD
:1018B0000078C0001C49098840EAA1100E4948740C
:1018C0001948007880001949097840EA21100A492E
:1018D00088741648007800011549097840EAA1008B
:1018E0000549C874124800788007000E0875152055
:1018F00008490870704700006002002024000020A2
:101900004C0000204400002048000020500000202F
:1019100096000020840100202800002038000020CC
:101920003E0000208A0100208C0100208E01002052
:101930008F01002008B54FF4A06003F0CBFB2520F9
:101940008DF8000003208DF8010000208DF80200C2
:1019500001208DF80300684603F0C1FB08BD00B507
:101960008BB00121084604F0F2F9F24805F074FC4E
:10197000F1480090F148019000200290642003900B
:101980000020049080200590002006900790089089
:101990004FF44050099000200A906946E54805F050
:1019A000F4FC0121E34805F01BFD0BB000BD00B5C0
:1019B00085B0FFF7D4FFFFF7BDFF012144F204001B
:1019C00004F0D2F94FF40070ADF8100018208DF833
:1019D000130003208DF8120004A9D94803F0E6FE95
:1019E0004FF48060ADF8100004208DF8130004A9B6
:1019F000D34803F0DBFE4FF4165000900020ADF802
:101A00000400ADF80600ADF80800ADF80C000C209D
:101A1000ADF80A006946C848001F05F05CFA0022CC
:101A200040F22661C448001F05F0CFFA002240F2C0
:101A30002551C148001F05F0C8FA012240F2244197
:101A4000BD48001F05F0C1FA01224021BA48001F1D
:101A500005F0DBFA0121B848001F05F0AAFA05B02D
:101A600000BD70B504460D46E1B2B348001F05F055
:101A700008FB00BF4021B048001F05F059FB0028BB
:101A8000F8D0204670BD00BFAB48001F008810F0A2
:101A9000200FF9D0A8480088C0F308007047F0B5BF
:101AA00003460D461646002729460A2E03D000207D
:101AB00008702846F0BD33B9302001F8010B002032
:101AC00008702846F6E7002B03DA2D2001F8010BF9
:101AD0005B4242F210720DE093FBF2F404B937B1AD
:101AE00004F1300001F8010B04FB123301270A2036
:101AF00092FBF0F2002AEFDC002008702846D9E7BC
:101B00000FB470B586B006460CA8019073E00B9830
:101B100000785C281CD10B98401C0B9000786E2834
:101B200009D072280FD10D21304605F0AAFA0B9882
:101B3000401C0B900BE00A21304605F0A2FA0B98EE
:101B4000401C0B9003E00B98401C0B9000BF4BE037
:101B50000B980078252840D10B98401C0B900078FA
:101B6000642818D0732833D1019810C801900BE075
:101B70002178304605F085FA00BF4021304605F057
:101B8000D7FA0028F9D0641C20780028F0D10B98EF
:101B9000401C0B9020E0019820C801900A2202A965
:101BA0002846FFF77CFF02AC0BE02178304605F0B9
:101BB00068FA00BF4021304605F0BAFA0028F9D093
:101BC000641C20780028F0D10B98401C0B9003E097
:101BD0000B98401C0B9000BF06E00B9810F8011BFF
:101BE0000B90304605F04DFA00BF4021304605F01D
:101BF0009FFA0028F9D00B980078002887D106B00A
:101C000070BC5DF814FB10B500240EE04D48015D7A
:101C10004948001F05F035FA00BF4748001F0088FB
:101C200010F0800FF9D0601CC4B2122CEEDB10BD96
:101C300070B542480078242878D14048407816286A
:101C400075D00EDC052873D006DC012818D00228D8
:101C50006FD004287ED114E10C287CD01228F9D151
:101C600097E12B2878D006DC172876D0182875D075
:101C70002A28EFD125E2312871D03228EAD1C5E2F5
:101C80003148007801283AD130480078012820D125
:101C9000002406E02949A01C085C2D490855601C59
:101CA000C4B2102CF6DB00F0D5FD00F020FE24209D
:101CB00024490870012048708870032404E0002043
:101CC00020490855601CC4B2122CF8DBFFF79BFFBB
:101CD0004FE024201B4908700120487002208870C2
:101CE000032404E0002017490855601CC4B2122CDC
:101CF000F8DBFFF788FF00201449087039E0002462
:101D000006E00E49A01C085C11490855601CC4B2CD
:101D1000102CF6DB00F09EFD00F0E9FD24200949BF
:101D2000087001204870887003241EE09BE273E174
:101D3000BAE01FE05800024004380140F8170020C4
:101D4000000801405C1800206201002061010020B1
:101D50002800002085E2C8E0D2E184E1A0E11DE294
:101D60000020F8490855601CC4B2122CF8DBFFF7BC
:101D70004AFF77E2F448007801284DD1F348007813
:101D8000012834D10020F2490860F24880780968BF
:101D900001EB0060EE490860EE48C078096801EB8D
:101DA0000040EB490860EB480079096801EB00202E
:101DB000E7490860E748407909680844E449086051
:101DC00000F0A1FD00F0CCFD2420DE4908700220C7
:101DD000487001208870032404E00020D949085588
:101DE000601CC4B2122CF8DBFFF70DFF48E0242082
:101DF000D4490870022048708870032404E0002051
:101E0000D0490855601CC4B2122CF8DBFFF7FBFE6A
:101E10000020CE49087033E00020CD490860CD484D
:101E20008078096801EB0060C9490860C948C0783A
:101E3000096801EB0040C6490860C6480079096896
:101E400001EB0020C2490860C24840790968084493
:101E5000BF49086000F057FD00F082FD2420B94919
:101E600008700220487001208870032404E00020DC
:101E7000B4490855601CC4B2122CF8DBFFF7C3FE4E
:101E8000F0E12420AF49087004204870002406E0E7
:101E9000B148015DAB4AA01C1154601CC4B2102CA7
:101EA000F6DBFFF7B0FEDDE12420A649087005202F
:101EB000487000240BE01820A0EBC401A44800687F
:101EC000C840C1B29F4AA01C1154601CC4B2042C6B
:101ED000F1DB062404E000209A490855601CC4B2D6
:101EE000122CF8DBFFF78FFEBCE1002404E0FF209A
:101EF0009A490855601CC4B2062CF8DB00F036FD88
:101F000000F07EFD002090490870904908709049CB
:101F1000086000F0F8FC00F023FD0A2404E0002033
:101F20008D490855601CC4B2102CF8DB00F092FCFF
:101F300000F0DDFC00F0DFFD894800888949088059
:101F4000874800888849088000F066FD002087499E
:101F5000087001F06EF801F073F800208449086001
:101F60008449086000F0BBFF01F02CF8242075497B
:101F700008700C20487001208870032404E00020C1
:101F800070490855601CC4B2122CF8DBFFF73BFE09
:101F900068E17048807972490880084600884FF6E9
:101FA000FF7101EA00206E4908806A48C0790988FB
:101FB00008446B4908806748007A6F4908800846E2
:101FC00000884FF6FF7101EA00206B4908806148E4
:101FD000407A098808446849088061480088614956
:101FE00008805F4800886049088000F015FD00F017
:101FF00082FD242053490870122048700120887007
:10200000032404E000204F490855601CC4B2122C80
:10201000F8DBFFF7F8FD25E15848006858490860EB
:102020005648001F006848605448083800688860B7
:1020300000F0A2FD00F0D9FD40F2011051490880E6
:1020400000F0E9FD24203F49087016204870022462
:1020500004E000203B490855601CC4B2122CF8DB98
:10206000FFF7D1FDFEE0002047490870FEF7DAFDDA
:1020700001F012FD24203349087017204870012018
:102080008870032404E000202E490855601CC4B267
:10209000122CF8DBFFF7B7FD01203C490870E1E0A6
:1020A00024202849087018204870022404E00020E9
:1020B00024490855601CC4B2122CF8DBFFF7A3FDBD
:1020C000D0E024488078012802D13149087002E02C
:1020D00000202F49087000F0BAFF24201949087029
:1020E0002A20487001208870032404E0002015494C
:1020F0000855601CC4B2122CF8DBFFF784FDB1E078
:102100001448C0781349897800EB012021490880E0
:10211000104800792049087000F0CFFD24200949BB
:1021200008702B20487001208870032404E00020F0
:1021300004490855601CC4B2122CF8DBFFF763FD9C
:1021400090E000005C180020620100206101002086
:1021500024000020F8170020280000209E01002005
:102160009A01002096010020940100205C010020CB
:10217000440000204800002098010020F0F7FF1FD5
:10218000EC130020640100205801002066010020AB
:10219000A200002086010020880100204049C97863
:1021A0003F4A927801EB022005F0D5FD3D4A03C27B
:1021B0003B48007958B93A498979394A527901EB53
:1021C0000221484205F0C7FD374A03C209E03449FD
:1021D0008979334A527901EB022005F0BCFD324A7D
:1021E00003C200F090FF242030490870312048706D
:1021F00001208870032404E000202C490855601C4D
:10220000C4B2122CF8DBFFF7FEFC00BF254903C95E
:1022100005F0BFFD0646244903C905F0BAFD054691
:1022200024202249087032204870300A8870CE700D
:10223000002D02DD0120087103E000201B49087118
:102240006D42280A194948718D71072404E0002065
:1022500016490855601CC4B2122CF8DBFFF7D3FCFA
:1022600000E000BF00BF70BD10B5002440F2244163
:102270000F4804F069FF88B100210E4805F0B0F85E
:102280000B480488001D0488FFF7D2FC642009492C
:102290005839C8650121074805F0A2F800BF10BDF4
:1022A000F817002010000020180000205C18002003
:1022B000003801405800024008B54FF4A06002F019
:1022C00009FF26208DF8000000208DF801008DF810
:1022D000020001208DF80300684602F000FF08BDEF
:1022E00000B58BB00121084603F031FD594804F0D8
:1022F000B3FF5948009059480190002002904FF4D4
:10230000C870039000200490802005900020069063
:10231000079008904FF40050099000200A906946F9
:102320004C4805F032F801214A4805F059F80BB045
:1023300000BD00B585B0FFF7D3FFFFF7BDFF01215A
:10234000042003F011FD0121480403F01AFD0420CC
:10235000ADF8100018208DF8130003208DF812003E
:1023600004A93F4803F022FA0820ADF81000042029
:102370008DF8130004A93A4803F018FA4FF41650E8
:1023800000900020ADF80400ADF80600ADF808009C
:10239000ADF80C000C20ADF80A0069462E48001F6D
:1023A00004F099FD002240F226612B48001F04F042
:1023B0000CFE002240F225512748001F04F005FEC4
:1023C000012240F224412448001F04F0FEFD0122B6
:1023D00040212148001F04F018FE01211E48001F63
:1023E00004F0E7FD05B000BD70B50024002540F203
:1023F00024411948001F04F0A7FEA8B10021154888
:1024000004F0EEFF1448001F0488001D04881549DD
:102410001248FEF7C5FE4FF4C8700E496C390867C4
:1024200001210C4804F0DCFF4FF45A710A48001FE8
:1024300004F08AFE28B14FF45A710748001F04F0D7
:10244000A9FE40F224410448001F04F0A3FE00BF8F
:1024500070BD00006C000240044400407B18002066
:1024600000080140E013002008B54FF4A06002F01E
:1024700031FE27208DF8000003208DF80100002098
:102480008DF8020001208DF80300684602F027FE57
:1024900008BD00B58BB00121084603F058FCDF48A9
:1024A00004F0DAFEDE480090DE4801900020029041
:1024B00012200390002004908020059000200690B8
:1024C000079008904FF44050099000200A90694608
:1024D000D24804F05AFF0121D04804F081FF0BB02C
:1024E00000BD00B585B0FFF7BFFFFFF7D2FF0121A8
:1024F000082003F039FC0121880403F042FC4FF46A
:102500008060ADF8100018208DF8130003208DF8BE
:10251000120004A9C44803F049F94FF40060ADF873
:10252000100004208DF8130004A9BF4803F03EF901
:102530004FF4165000900020ADF80400ADF80600EE
:10254000ADF80800ADF80C000C20ADF80A006946A3
:10255000B348001F04F0BFFC002240F22661B048DF
:10256000001F04F032FD002240F22551AC48001F4C
:1025700004F02BFD012240F22441A948001F04F081
:1025800024FD01224021A648001F04F03EFD012148
:10259000A348001F04F00DFD05B000BD10B50024D8
:1025A0000EE0A248015D9E48001F04F06AFD00BFD6
:1025B0009B48001F008810F0800FF9D0601CC4B247
:1025C000122CEEDB10BD10B504462146984804F0ED
:1025D00058FD00BF9648008810F0800FFAD010BD5B
:1025E00010B590480078242875D18E48407810287E
:1025F00059D00CDC062832D004DC012810D0032886
:102600006AD11FE00C2869D00F28F9D134E01228D4
:102610007AD0172876D0182875D01A28F0D1B4E0CF
:10262000242084490870012048708870032404E045
:10263000002080490855601CC4B2122CF8DBFFF75B
:10264000E2FAC5E0002405E07648005D79490855C6
:10265000601CC4B2122CF7DBFFF7D5FAB8E00024F7
:1026600005E07048005D73490855601CC4B2122C27
:10267000F7DBFFF7C8FAABE000206F49087000F005
:1026800025FE6E4800886E4908806C4800886D49B8
:10269000088000F0F1FD00F048FC01206A49087054
:1026A0006A49087094E000F011FE644800886449AB
:1026B0000880624800886349088000F0DDFD00F072
:1026C00096FB01F0E9F901F01AF9012003F0B6F9DF
:1026D00003F0CAF97CE07CE079E0FFE7242055496B
:1026E00008700C20487001208870032404E000204A
:1026F00050490855601CC4B2122CF8DBFFF783FA6E
:1027000066E001E013E02FE024204A49087012201F
:10271000487001208870032404E0002045490855D2
:10272000601CC4B2122CF8DBFFF76DFA50E00020F9
:1027300045490870FEF776FA01F0AEF924203D49CC
:1027400008701720487001208870032404E00020DE
:1027500038490855601CC4B2122CF8DBFFF753FA55
:1027600001203B49087033E02420324908701820CA
:102770004870022404E000202E490855601CC4B2B1
:10278000122CF8DBFFF73FFA22E02648807878B970
:1027900000202F49087001202B490870C1032248EE
:1027A00003F0B1F8012003F049F903F05DF90DE001
:1027B000012027490870FEF735FA01F06DF9FEF7A0
:1027C0006DFA4FF40041184803F09BF800E000BF99
:1027D00000BF10BD10B5002440F224411048001F76
:1027E00004F0B2FCB8B100210C4804F0F9FD0C482B
:1027F000001F0488001D0488084804F005FEC0F18D
:102800001204FFF7EDFE122004493039486301211C
:10281000024804F0E5FD00BF10BD0000300002409A
:10282000044800400B1A0020000C01402A1A002026
:10283000003801405C180020C80100209A010020E7
:10284000960100209401002058010020670100201B
:102850006601002010B50420FE4908700120FE49E1
:10286000087002F0C4FC352002F02DFFFB48006820
:10287000FB490968401A800AFA490860F849096862
:10288000F84A12684FF4806303FB021002F0F6FC72
:10289000F0490870F2480068F3490860002423E01A
:1028A000032000EB8400F14A105C0006022202EBD8
:1028B0008402EE4B9A5C00EB0240012202EB8402A0
:1028C0009A5C00EB02201A4612F824208118E64890
:1028D000006802F064FDDF490870E3480068001DED
:1028E000E1490860601CC4B2042CD9DB10BD002093
:1028F00006E0DB490968095CDC4A1154411CC8B296
:102900001028F6DB704710B50420D249087001206A
:10291000D149087002F06BFC352002F0D4FECF489C
:102920004068CF494968401A800ACE490860CC49BE
:102930004968CC4A12684FF4806303FB021002F02E
:102940009DFCC4490870C6484068C7490860C8482B
:102950000168C548006802F022FDBE49087010BD3C
:10296000BF4840680068C2490860704710B504203D
:10297000B84908700120B849087002F038FC3520C9
:1029800002F0A1FEB5488068B5498968401A800AFE
:10299000B4490860B2498968B24A12684FF480634A
:1029A00003FB021002F06AFCAA490870AC48806878
:1029B000AD490860AF48C0780006AE4A927800EB97
:1029C0000240AC4A527800EB0220AA4A12788118E1
:1029D000A548006802F0E3FC9E490870A248006820
:1029E000001DA1490860A3480079A24A527900EB72
:1029F00002219D48006802F0D2FC9649087010BD83
:102A0000002006E096498968095C9A4A1154411CE5
:102A1000C8B20628F6DB704710B504208D4908704F
:102A200001208D49087002F0E2FB352002F04BFED8
:102A30008A4800698A490969401A800A89490860F8
:102A400087490969874A12684FF4806303FB0210C3
:102A500002F014FC7F4908708148006982490860CF
:102A6000854801888048006802F099FC794908701F
:102A70007D480068001D7C490860804801887A48CC
:102A8000006802F08CFC7349087077480068001DEC
:102A9000754908607A4801887348006802F07FFC35
:102AA0006C49087070480068001D6F4908607548DF
:102AB00001886D48006802F072FC664908706A4837
:102AC0000068001D6849086008460068001D08602D
:102AD0006D4801886448006802F093FC5D49087005
:102AE00068480188042004F08EFB674801880C20A8
:102AF00004F089FB10BD10B5594800695A490860B7
:102B00000846006800885C49088057480068001D36
:102B100055490860084600680088584908805248AE
:102B20000068001D50490860084600680088544944
:102B300008804D480068001D4B4908600846006841
:102B400000885049088048480068001D46490860D0
:102B500008460068001D08600846006800884A4969
:102B6000088048480188042004F04DFB464801884D
:102B70000C2004F048FB10BD10B504203549087046
:102B800001203549087002F032FB352002F09BFD30
:102B90003248406932494969401A800A314908601F
:102BA0002F4949692F4A12684FF4806303FB0210D2
:102BB00002F064FB27490870294840692A490860E7
:102BC00000240FE0314850F824102748006802F034
:102BD000E6FB2049087024480068001D224908606F
:102BE000601CC4B2022CEDDD10BD1D4949691E4AAE
:102BF000116000200CE01C4909680968234A42F86A
:102C0000201019490968091D174A1160411CC8B2F2
:102C10000228F0DD704710B504200E49087001202D
:102C20000D49087002F0E3FA352002F04CFD0B4824
:102C300080690B498969401A800A0A490860084975
:102C40008969084A12684FF4806303FB021002F09E
:102C500015FB1DE03C0200203D0200200002002088
:102C6000CC0100203802002034020020280000207F
:102C7000240000209E010020980100209A010020DD
:102C80009C0100209601002094010020EC130020FC
:102C9000FE490870FE488069FE490860FE480188C8
:102CA000FC48006802F0ADFBF849087010BDF84818
:102CB00080690088F8490880704710B50420F349FE
:102CC00008700120F549087002F091FA352002F0F1
:102CD000FAFCF348C069EE49C969401A800AF14913
:102CE0000860EB49C969EF4A12684FF4806303FB3F
:102CF000021002F0C3FAE5490870E548C069E549E9
:102D00000860E9480188E348006802F048FBDF49B1
:102D10000870E0480068001DDE490860E34801785B
:102D2000DC48006802F03BFBD849087010BDD84869
:102D3000C069D8490860D648C0690088DA49088067
:102D4000D4480068001DD349086008460068007830
:102D5000D6490870D449088800EBD0714910B0EB0F
:102D600041010FD0D049088800EBD0714910D04AFA
:102D70001180CD49088800EBD0714910491CCD4A1B
:102D800011800DE0C849088800EBD0714910C84A8D
:102D90001180C549088800EBD0714910C54A1180DF
:102DA000C249087800EBD0714910B0EB41010FD057
:102DB000BE49087800EBD0714910BF4A1170BB4979
:102DC000087800EBD0714910491CBC4A11700DE025
:102DD000B649087800EBD0714910B74A1170B34971
:102DE000087800EBD0714910B44A1170704710B5E3
:102DF0000420A64908700120A849087002F0F7F9DC
:102E0000352002F060FCA648806AA149896A401A10
:102E1000800AA44908609E49896AA24A12684FF450
:102E2000806303FB021002F029FA98490870984861
:102E3000806A98490860A24801689648006802F0D4
:102E4000AEFA9249087093480068001D91490860E5
:102E50009C4801688F48006802F0A1FA8B4908700D
:102E60008C480068001D8B490860974801688948B4
:102E7000006802F094FA8549087086480068001DD1
:102E800084490860914801688248006802F087FA26
:102E90007E4908708A480068010C102004F0B3F9DC
:102EA00088480068010C142004F0ADF984480088BB
:102EB00081B21C2004F0A7F98248008881B220204A
:102EC00004F0A1F98048008881B2242004F09BF925
:102ED0007E48008881B2282004F095F910BD10B515
:102EE00077480068010C102004F08DF975480068DF
:102EF000010C142004F087F97148008881B21C206D
:102F000004F081F96F48008881B2202004F07BF939
:102F10006D48008881B2242004F075F96B48008860
:102F200081B2282004F06FF910BD10B55848806AAE
:102F300058490860084600680068614908605548BB
:102F40000068001D534908600846006800685D4934
:102F5000086050480068001D4E4908600846006837
:102F60000088594908604B480068001D49490860BD
:102F70000846006800885549086051480068010CFF
:102F8000102004F040F94F480068010C142004F0B0
:102F90003AF94B48008881B21C2004F034F94948C2
:102FA000008881B2202004F02EF94748008881B2C1
:102FB000242004F028F94548008881B2282004F034
:102FC00022F910BD10B500203D4908603D49086058
:102FD0003D4908603D490860102004F018F938495F
:102FE000086008460088000408601C2004F00FF9FF
:102FF00033490968084432490860142004F007F98D
:10300000304908600846008800040860202004F069
:10301000FEF82C49096808442A490860242004F075
:10302000F6F829490860282004F0F1F827490860DB
:1030300010BD10B526480178182004F0E4F810BD42
:1030400010B5182004F0E3F82149087010BD10B540
:1030500004200E49087001201049087002F0C7F8DA
:10306000352002F030FB0E48C0680949C968401A93
:10307000800A0C4908600649C9680A4A12684FF478
:10308000806303FB021002F0F9F823E03C02002009
:10309000CC01002034020020640100203D02002009
:1030A0000002002038020020860100208801002054
:1030B0008A0100208C0100208E0100208F01002059
:1030C00044000020480000204C0000205000002058
:1030D0005C010020A1490870A148C068A1490860AE
:1030E000A14801789F48006802F059F99B4908708F
:1030F00010BD9B48C0689B4908600846006800787E
:1031000099490870704710B504209449087001204F
:103110009649087002F06BF8352002F0D4FA944812
:10312000006A8F49096A401A800A924908608C49EE
:10313000096A904A12684FF4806303FB021002F0A0
:103140009DF8864908708648006A864908608A4961
:1031500003C904F01EFE044621468248006802F0BE
:103160001EF97E4908707F480068001D7D4908608F
:10317000824903C904F00DFE0446214679480068DF
:1031800002F00DF97549087010BD10B57448006A59
:10319000744908600968086804F0DDFD764A03C2D6
:1031A00070480068001D6F4908600968086804F0ED
:1031B000D2FD724A03C210BD10B5082004F027F8F2
:1031C0006F49087008460078012803D0FDF735FDE7
:1031D000FDF75EFD10BD10B5002406E060480068F4
:1031E000005D68490855601CC4B2102CF6DB5C48D1
:1031F0004068006864490860002406E05848806818
:10320000005D62490855601CC4B2062CF6DBFFF76E
:1032100070FFFFF78CFD524800695249086008466C
:10322000006800885A4908804E480068001D4D49D2
:1032300008600846006800885649088049480068C8
:10324000001D484908600846006800885249088007
:10325000042003F0DCFF514908800C2003F0D7FF65
:103260004F490880FFF7AEFEFFF78FFF182003F0ED
:10327000CEFF4C49087010BD10B53A480068001DDB
:1032800038490860454801883648006802F087F8E8
:103290003249087033480068001D3249086008460A
:1032A0000068001D08603E4801882E48006802F052
:1032B000A8F82A49087039480188042003F0A3FFC0
:1032C000374801880C2003F09EFF10BD10B524483C
:1032D0000069244908600846006800882C49088075
:1032E00020480068001D1F490860084600680088E3
:1032F000284908801B480068001D1A4908600846D4
:10330000006800882449088016480068001D154997
:103310000860084600680088204908801148006855
:10332000001D1049086008460068001D0860084636
:10333000006800881A49088018480188042003F0B2
:1033400062FF174801880C2003F05DFFFFF73AFE8B
:10335000182003F05CFF1349087010BD3C020020E8
:10336000CC01002034020020A20000203D020020F9
:103370000002002038020020100000201800002069
:10338000A501002028000020240000209E0100202C
:10339000980100209A0100209C0100209601002045
:1033A000940100205C01002000B587B001214FF49A
:1033B000027002F0D9FC4FF4004002F03CFC022005
:1033C000ADF8040000208DF8070001A9304802F094
:1033D000EDF9304804F05EF8002002908DF80C0002
:1033E0008DF80D004FF4602004900020059001201E
:1033F0008DF8180002A9274804F079F80121254822
:1034000004F0A1F8234804F0C0F800BF214804F0FC
:10341000C1F80028FAD11F4804F0C6F800BF1D48C3
:1034200004F0C7F80028FAD107B000BD10B5044673
:10343000072301222146174804F0F1F8012115481D
:1034400004F0C1F800BF0221124804F00EFA00286F
:10345000F9D0104804F04AF910BD2DE9F04180463A
:103460000C46002500260BE04046FFF7DFFF054431
:10347000002701E0781CC7B2C82FFBDB701CC6B266
:10348000A642F1DBB5FBF4F080B2BDE8F0810000AC
:10349000000C01400024014010B54FF40041FE48EB
:1034A00002F02FFA47F23050FCF73CFE47F2305062
:1034B000FCF738FE47F23050FCF734FE47F230504C
:1034C000FCF730FE47F23050FCF72CFE47F230504C
:1034D000FCF728FE47F23050FCF724FE47F230504C
:1034E000FCF720FE47F23050FCF71CFE47F230504C
:1034F000FCF718FE47F23050FCF714FE47F230504C
:10350000FCF710FE47F23050FCF70CFE47F230504B
:10351000FCF708FE47F23050FCF704FE47F230504B
:10352000FCF700FE47F23050FCF7FCFD47F230504C
:10353000FCF7F8FD47F23050FCF7F4FD47F230504D
:10354000FCF7F0FD47F23050FCF7ECFD47F230504D
:10355000FCF7E8FD47F23050FCF7E4FD47F230504D
:10356000FCF7E0FD47F23050FCF7DCFD47F230504D
:10357000FCF7D8FD47F23050FCF7D4FD47F230504D
:10358000FCF7D0FD47F23050FCF7CCFD47F230504D
:10359000FCF7C8FD47F23050FCF7C4FD47F230504D
:1035A000FCF7C0FD47F23050FCF7BCFD47F230504D
:1035B000FCF7B8FD47F23050FCF7B4FD47F230504D
:1035C000FCF7B0FD47F23050FCF7ACFD47F230504D
:1035D000FCF7A8FD47F23050FCF7A4FD47F230504D
:1035E000FCF7A0FD47F23050FCF79CFD47F230504D
:1035F000FCF798FD47F23050FCF794FD47F230504D
:10360000FCF790FD47F23050FCF78CFD47F230504C
:10361000FCF788FD47F23050FCF784FD47F230504C
:10362000FCF780FD47F23050FCF77CFD47F230504C
:10363000FCF778FD47F23050FCF774FD47F230504C
:10364000FCF770FD47F23050FCF76CFD47F230504C
:10365000FCF768FD47F23050FCF764FD47F230504C
:10366000FCF760FD47F23050FCF75CFD47F230504C
:10367000FCF758FD47F23050FCF754FD47F230504C
:10368000FCF750FD47F23050FCF74CFD47F230504C
:10369000FCF748FD47F23050FCF744FD47F230504C
:1036A000FCF740FD47F23050FCF73CFD47F230504C
:1036B000FCF738FD47F23050FCF734FD47F230504C
:1036C000FCF730FD47F23050FCF72CFD47F230504C
:1036D000FCF728FD47F23050FCF724FD47F230504C
:1036E000FCF720FD47F23050FCF71CFD47F230504C
:1036F000FCF718FD47F23050FCF714FD47F230504C
:10370000FCF710FD47F23050FCF70CFD47F230504B
:10371000FCF708FD47F23050FCF704FD47F230504B
:10372000FCF700FD47F23050FCF7FCFC47F230504C
:10373000FCF7F8FC47F23050FCF7F4FC47F230504D
:10374000FCF7F0FC47F23050FCF7ECFC47F230504D
:10375000FCF7E8FC47F23050FCF7E4FC47F230504D
:10376000FCF7E0FC47F23050FCF7DCFC47F230504D
:10377000FCF7D8FC47F23050FCF7D4FC47F230504D
:10378000FCF7D0FC47F23050FCF7CCFC47F230504D
:10379000FCF7C8FC47F23050FCF7C4FC47F230504D
:1037A000FCF7C0FC47F23050FCF7BCFC47F230504D
:1037B000FCF7B8FC47F23050FCF7B4FC47F230504D
:1037C000FCF7B0FC47F23050FCF7ACFC47F230504D
:1037D000FCF7A8FC47F23050FCF7A4FC47F230504D
:1037E000FCF7A0FC47F23050FCF79CFC47F230504D
:1037F000FCF798FC47F23050FCF794FC47F230504D
:10380000FCF790FC47F23050FCF78CFC47F230504C
:10381000FCF788FC47F23050FCF784FC47F230504C
:10382000FCF780FC47F23050FCF77CFC47F230504C
:10383000FCF778FC47F23050FCF774FC47F230504C
:10384000FCF770FC47F23050FCF76CFC47F230504C
:10385000FCF768FC47F23050FCF764FC47F230504C
:10386000FCF760FC47F23050FCF75CFC47F230504C
:10387000FCF758FC47F23050FCF754FC47F230504C
:10388000FCF750FC47F23050FCF74CFC47F230504C
:10389000FCF748FC02E00000000C014047F2305009
:1038A000FCF740FC47F23050FCF73CFC47F230504C
:1038B000FCF738FC47F23050FCF734FC47F230504C
:1038C000FCF730FC47F23050FCF72CFC47F230504C
:1038D000FCF728FC47F23050FCF724FC47F230504C
:1038E000FCF720FC47F23050FCF71CFC63480078E2
:1038F00020B94FF40041624802F005F810BD10B540
:103900000024B7E04FF400415D4801F0FAFF47F2B0
:103910003050FCF707FC47F23050FCF703FC47F24D
:103920003050FCF7FFFB47F23050FCF7FBFB47F24F
:103930003050FCF7F7FB47F23050FCF7F3FB47F24F
:103940003050FCF7EFFB47F23050FCF7EBFB47F24F
:103950003050FCF7E7FB47F23050FCF7E3FB47F24F
:103960003050FCF7DFFB47F23050FCF7DBFB47F24F
:103970003050FCF7D7FB47F23050FCF7D3FB47F24F
:103980003050FCF7CFFB47F23050FCF7CBFB47F24F
:103990003050FCF7C7FB47F23050FCF7C3FB47F24F
:1039A0003050FCF7BFFB47F23050FCF7BBFB47F24F
:1039B0003050FCF7B7FB31480078012858D04FF45D
:1039C00000412F4801F09FFF47F23050FCF7AAFB5F
:1039D00047F23050FCF7A6FB47F23050FCF7A2FB51
:1039E00047F23050FCF79EFB47F23050FCF79AFB51
:1039F00047F23050FCF796FB47F23050FCF792FB51
:103A000047F23050FCF78EFB47F23050FCF78AFB50
:103A100047F23050FCF786FB47F23050FCF782FB50
:103A200047F23050FCF77EFB47F23050FCF77AFB50
:103A300047F23050FCF776FB47F23050FCF772FB50
:103A400047F23050FCF76EFB47F23050FCF76AFB50
:103A500047F23050FCF766FB47F23050FCF762FB50
:103A600047F23050FCF75EFB47F23050FCF75AFB50
:103A7000601C84B20A2CFFF645AF10BD6601002021
:103A8000000C014010B501214FF0C05002F079F94F
:103A9000012001F0C4FF10BD10B51021564801F0FF
:103AA00032FF4FF40061544801F02DFF20215348AC
:103AB00001F029FF00205249087010BD10B5052102
:103AC0000920FFF7CAFC044640F68A60844203DD01
:103AD00009204C49087054E040F62D60844207DD0F
:103AE00040F68A60844203DC08204649087048E0BA
:103AF00040F6D650844207DD40F62D60844203DC58
:103B00000720404908703CE040F67750844207DDCA
:103B100040F6D650844203DC06203A49087030E073
:103B200040F61850844207DD40F67750844203DCAB
:103B300005203449087024E040F6BD40844207DD8A
:103B400040F61850844203DC04202E49087018E027
:103B5000B4F5466F07DD40F6BD40844203DC032028
:103B6000284908700DE040F60440844206DDB4F5B3
:103B7000466F03DC02202349087002E0012021493E
:103B800008702048007810BD10B51E480078042841
:103B900018DB24201C490870192048700120887007
:103BA000032404E0002018490855601CC4B2122CFC
:103BB000F8DBFEF7F3FC47F23050FCF7B3FAFEF700
:103BC000EDFC17E0242010490870192048700020EF
:103BD0008870032404E000200B490855601CC4B21F
:103BE000122CF8DBFEF7DAFC47F23050FCF79AFAB9
:103BF000FEF7D4FC10BD000000080140000C01409D
:103C000058010020A40100202A1A0020012080F37E
:103C1000138800BF00BF3748006800F4E0603649F1
:103C20000843001D3349086000BF704708B54FF4D2
:103C3000A06001F04FFA03208DF8000000208DF8FD
:103C400001008DF8020001208DF80300684601F0A4
:103C500046FA08BD10B500202849087001214FF030
:103C6000C05002F08EF8012001F0D9FE03F0A2FA54
:103C70004FF4407002F001F8012002F004F802F065
:103C80003FF902F035F90121022002F0D5F802F0E7
:103C90002FF940F2826002F005F902F029F942F2B0
:103CA000283002F00DF902F023F9002002F0EDF8BF
:103CB00002F01EF910BD10B5FFF7B8FFFFF7CAFFFD
:103CC00010BD00200E490888704710B5022002F090
:103CD0003BF970B1022002F047F902F009F9002027
:103CE00002F0D3F802F004F904480078401C0349BC
:103CF000087010BD0CED00E00000FA053E02002047
:103D00001C2800408AE04FF48051CE4801F0DFFDCE
:103D100030B94FF48041CB4801F0D9FD012804D0DF
:103D2000012001F08BFE01F09FFE1021C64801F03A
:103D3000EAFD2021C34801F0E6FD642404E0C34805
:103D4000FCF7F0F9601E84B2002CF8D14FF400614A
:103D5000BD4801F0D6FDFF20FCF7E4F9FF20FCF799
:103D6000E1F9FF20FCF7DEF9FF20FCF7DBF9FF208B
:103D7000FCF7D8F9FF20FCF7D5F9FF20FCF7D2F9C2
:103D8000FF20FCF7CFF9FF20FCF7CCF9FF20FCF770
:103D9000C9F9FF20FCF7C6F9FF20FCF7C3F9FDF7CE
:103DA000FBF8FDF78FF9FF20FCF7BCF9FF20FCF7CB
:103DB000B9F9FF20FCF7B6F900210820FDF763F9F7
:103DC00000210920FDF75FF900BF0221A04802F0A1
:103DD00022FA0028F9D001219A4801F092FD102121
:103DE000994801F08EFD782404E09848FCF79AF990
:103DF000601E84B2002CF8D14FF40061924801F0AB
:103E000082FD1021904801F07EFDF02404E08F48EF
:103E1000FCF788F9601E84B2002CF8D173E7EAE061
:103E20004FF48051874801F052FD28B94FF480418A
:103E3000844801F04CFD20B1012001F0FFFD01F0AC
:103E400013FE00214FF4003001F09BFF10217E484B
:103E500001F059FD20217B4801F053FD4FF4006132
:103E6000794801F04EFD4FF40041764801F049FDDC
:103E7000FF20FCF757F9FF20FCF754F9FF20FCF76F
:103E800051F9FF20FCF74EF9FF20FCF74BF9FF201A
:103E9000FCF748F9FDF780F8FDF714F9FF20FCF76F
:103EA00041F9FF20FCF73EF9FF20FCF73BF9002128
:103EB0000820FDF7E8F800210920FDF7E4F800BF2D
:103EC0000221634802F0A7F90028F9D001215D48DA
:103ED00001F017FD4FF42F651EE0FDF75DF8FDF7CB
:103EE000F1F800210820FDF7CEF800210920FDF7A8
:103EF000CAF800BF0221564802F08DF90028F9D017
:103F00000121504801F0FDFCFF20FCF70BF9FF20D8
:103F1000FCF708F9681E85B2002DDED14FF4006170
:103F2000494801F0F0FC4FF40041464801F0EBFC39
:103F3000FF20FCF7F7F8FF20FCF7F4F8FF20FCF770
:103F4000F1F8FF20FCF7EEF8FF20FCF7EBF8FF207C
:103F5000FCF7E8F8FF20FCF7E5F8FF20FCF7E2F8B3
:103F6000FF20FCF7DFF8FF20FCF7DCF8FF20FCF770
:103F7000D9F8FF20FCF7D6F81021334801F0C1FC36
:103F80003C2404E03148FCF7CDF8601E84B2002CDC
:103F9000F8D110212C4801F0B6FCFF20FCF7C2F844
:103FA000FF20FCF7BFF8FF20FCF7BCF8FF20FCF770
:103FB000B9F8FF20FCF7B6F8FF20FCF7B3F8FF20B4
:103FC000FCF7B0F8FF20FCF7ADF8FF20FCF7AAF8EB
:103FD000FF20FCF7A7F8FF20FCF7A4F8FF20FCF770
:103FE000A1F840F2DC5404E01848FCF79BF8601E8E
:103FF00084B2002CF8D113E710B54FF4805111486A
:1040000001F065FC01281CD04FF480510D4801F0EF
:104010005EFC38B94FF480410A4801F058FC08B9F9
:10402000FFF7FDFE4FF48051064801F050FC40B907
:104030004FF48041034801F04AFC012801D1FFF709
:1040400061FE10BD000C0140000801406119010033
:10405000003001402DE9F04F91B006460F469246E0
:104060009B46DDE91A8900BF50465946DDE91C230D
:1040700003F08AFDFD4AFE4BCDE9080103F08AFDFD
:104080000022FC4BCDE90A0103F0F6FDCDE90C015D
:10409000F64AF74B3046394603F07CFD0022F54BDB
:1040A000CDE90A0103F0E8FD06460F46EF4AF04B62
:1040B0004046494603F06EFD0022EE4BCDE90A0171
:1040C00003F0DAFD80468946DDE90C0104F01AFEB2
:1040D000CDE906014046494604F014FECDE902014F
:1040E0003046394604F00EFECDE90001DDE9022339
:1040F00003F050FDCDE90401DDE9062303F04AFD9C
:10410000CDE90A014046494604F052FECDE90601D8
:104110003046394604F04CFECDE90401DDE90623C2
:1041200003F038FDCDE90801DDE90A2303F08BFC3B
:1041300004460D460022D04B2046294603F076FE69
:1041400002D20024CC4D08E00022CC4B2046294668
:1041500003F058FE01D20024C84D2046294604F041
:104160007BFBCDE90E010020C549DDE90E2303F0FC
:1041700011FDCDE90E01DDE90E0111B0BDE8F08FB2
:1041800070B504460D464FF00002134620462946FE
:1041900003F04CFE01D2012070BD002213462046E0
:1041A000294603F02FFE01D10020F5E74FF0FF3044
:1041B000F2E72DE9FC4704460D464FF00002134696
:1041C0002046294603F032FE18D82046294603F03F
:1041D000E0FD8246504603F0BEFD804622462B4657
:1041E00003F0D5FC06460022A64B03F01FFE03D8C1
:1041F0000AF10100BDE8FC875046FBE785F0004569
:104200002946204603F0C5FD8246504603F0A3FD33
:10421000064685F00049A04632460B4649462046F0
:1042200003F0B2FC0022974BCDE9000103F0FEFD44
:1042300003D80AF101004042DCE7CAF10000D9E7E7
:104240002DE9FC5F81468A464FF0000B28E00024F0
:104250001EE0601C09EBC000D0E9007309EBC4004C
:1042600003C83A46CDE9000103F0E0FD0FD209EBA7
:10427000C40060C8601C09EBC000D0E9001009EB65
:10428000C402C2E90010601C09EBC00060C0641CDD
:10429000AAF10100A0EB0B00A042DADC0BF1010B4C
:1042A000AAF101005845D2DCBDE8FC9F70B5054677
:1042B0000C46072C02DD0020704970BD21462846BF
:1042C000FFF7BEFF224604EBD270401005EBC001A1
:1042D00003C9F2E703B5CFB000204E904D904C904B
:1042E0004B904A901D9007201C9000206649CDE914
:1042F0001A0166A14F9803F081FB199002201999C9
:10430000FDF775F81790199830B1179820B11999E1
:104310001798085C189001E0002018901998002860
:104320007ED0189841287BD103201999FDF75FF8BA
:10433000199908441390FDF776F8CDE9140103F0BC
:1043400028FD5099086005201999FDF750F8199932
:1043500008441390FDF767F8CDE9140103F019FD47
:1043600050994860199803F067FB0C2834D91998C4
:10437000017A3039C079303800EB800001EB400021
:104380004FF461614843149000EBD07042101998CB
:10439000807A30381999497A303901EB810100EB84
:1043A0004100C0EB00108000159000EBD07002EBD4
:1043B00060021998007B30381999C97A303901EBBD
:1043C000810100EB4100169000EBD07002EB600021
:1043D00081B25098418103E04FF6FF7150984181BE
:1043E00004201999FDF703F81999095C5098017296
:1043F00006201999FCF7FBFF1999095C5098417246
:104400005098406823490860509800682249086025
:1044100007201999FCF7EBFF80B10720199900E0FC
:10442000F4E3FCF7E4FF199908441390FDF776F8DC
:10443000CDE9140103F0CCFC18490860FEF759FEE1
:1044400017480078012806D1164800683B2802D199
:104450000020134908705098007A4E282DD10E483C
:10446000006803F089FC00220F4B1FE0182D445414
:10447000FB210940008066400000F03F0000F0BFD3
:10448000AE4D58410000E03F0000454024475052E7
:104490004D43000044000020480000204C00002054
:1044A0000400002008000020804F2241CDE91401C3
:1044B00003F0E2FBCDE91E0110E05098007A53288A
:1044C0000CD1FE480068404203F056FC0022FC4B31
:1044D000CDE9140103F0D0FBCDE91E015098407ADC
:1044E00045280CD1F748006803F046FC0022F44B45
:1044F000CDE9140103F0C0FBCDE9200110E0509894
:10450000407A57280CD1EF480068404203F034FC51
:104510000022EB4BCDE9140103F0AEFBCDE9200105
:10452000199803F089FA0C2827D91998007A30389D
:104530001999C979303901EB810100EB41014FF440
:10454000616041431998807A3038199A527A303A2A
:1045500002EB820200EB4200C0EB001001EB800294
:104560001998007B30381999C97A303901EB8101EB
:1045700000EB41001044459002E04FF0FF304590C1
:10458000D1480078401CD0490870D0480068052800
:1045900015DCCE480068401CCC490860CC4ACB4BA7
:1045A000DDE91E011B6802EBC30203C2C94AC74B07
:1045B000DDE920011B6802EBC30203C23EE0C348F1
:1045C000006806283AD10021C048016020E0C049B7
:1045D000BE480068401C01EBC000D0E90010BC4A96
:1045E000BA4B1B6802EBC302C2E90010B949B748D5
:1045F0000068401C01EBC00103C9B64AB34B1B68FD
:1046000002EBC30203C2B1480068401CAF49086016
:10461000AE4800680528DADDAD4AAC4BDDE91E1076
:104620001B6802EBC302C2E90010AA4AA74BDDE9EE
:1046300020101B6802EBC302C2E9001000204E905C
:1046400016E0A3494E9801EBC000A34B06C84E9854
:1046500003EBC00006C09F494E9801EBC0009F4B82
:1046600006C84E9803EBC00006C04E98401C4E9002
:1046700096494E9809688842E3DD94480168491CD0
:104680009548FFF713FECDE91E0190480168491CCB
:104690009248FFF70BFECDE9200100201D909048C5
:1046A000007860B11C98401E8E490968884206DD7A
:1046B00085480078142802DD01201D9034E08948E7
:1046C00001681C98081A401C3C2190FBF1F201FB88
:1046D0001200854901EBC00103C9CDE912018148EF
:1046E00001681C98081A401C3C2190FBF1F201FB68
:1046F00012007E4901EBC00103C9CDE91001DDE9DB
:104700001201CDE90201DDE91001CDE900011EA889
:104710000FC8FFF79FFCCDE91401DDE91A2303F070
:1047200085FB01D201201D901D9800287ED06D4888
:104730000068401C3C2190FBF1F201FB120069492A
:1047400008606A4A674BDDE91E011B6802EBC30281
:1047500003C2654A634BDDE920101B6802EBC3020C
:10476000C2E9001062495F4A4598126841F8220088
:104770005B480078012802D100204C900BE058489B
:10478000007840B957480068401C3C2190FBF1F28A
:1047900001FB12004C904C984D9053494D9801EB01
:1047A000C00103C94991489050494D9801EBC0019F
:1047B00003C9479146906CE04B494D9801EBC0000E
:1047C00003C8CDE9020147994698CDE90001499B0C
:1047D000489AFFF73FFCCDE9140143494D9801EB9E
:1047E000C00103C9CDE90C01499B489A03F0CCF9FB
:1047F000CDE90E01FFF7C4FC119003F0ACFACDE94E
:104800001201DDE9142303F0C5F93A4B4B9A03EB8F
:10481000C20203C249994898CDE9020133494D9833
:1048200001EBC00103C9CDE9000100E0FEE346A8A9
:104830000FC8FFF70FFCCDE914012C494D9801EB8F
:10484000C00103C9CDE90C01479B469A03F09CF9CE
:10485000CDE90E01FFF794FC119003F07CFACDE94D
:104860001201DDE9142303F095F9234B4B9A03EB76
:10487000C20203C24B98401C3C2190FBF1F201FBA9
:1048800012004B904D98401C90FBF1F201FB12007E
:104890004D9014494D98096888428DD112494D9820
:1048A00001EBC00103C9CDE9020147994698CDE962
:1048B0000001499B489AFFF7CDFB1FE0480000200C
:1048C000804F2241440000202000002000000020F2
:1048D00090070020C80700200008002038080020AA
:1048E000040000200800002060090020400B002088
:1048F00070080020200D0020000F0020CDE91401D9
:10490000FE494D9801EBC00103C9CDE90C01499B5B
:10491000489A03F039F9CDE90E01FFF731FC119007
:1049200003F019FACDE91201DDE9142303F032F99D
:10493000F34B4B9A03EBC20203C249994898CDE965
:104940000201F0494D9801EBC00003C8CDE9000118
:1049500046A80FC8FFF77EFBCDE91401E9494D9841
:1049600001EBC00103C9CDE90C01479B469A03F056
:104970000BF9CDE90E01FFF703FC119003F0EBF901
:10498000CDE91201DDE9142303F004F9DE4B4B9A63
:1049900003EBC20203C24B98401C4A904A9803287A
:1049A0007ED30021409141913E913F9100BF00BFD5
:1049B00000204E901CE0D2494E9801EBC00103C983
:1049C000CDE91201CE494E9801EBC00103C9CDE9F2
:1049D0001001DDE9122303F0DDF8CDE91401419B5C
:1049E000409A03F030F8419140904E98401C4E9010
:1049F0004A994E988842DED300204E900FE0C0497D
:104A00004E9801EBC00103C9CDE91401DDE93E2355
:104A100003F019F8CDE93E014E98401C4E904E9996
:104A20004A988142EBD3DDE93E23CDE93C234A9805
:104A300003F0A2F9CDE93A01DDE93C23DDE93E01CD
:104A400003F0A8F8CDE91401DDE93A234199409833
:104A500003F0A0F8CDE91201DDE9142303F094F886
:104A600043914290439B429ADDE93A0103F004F9F5
:104A7000CDE93801DDE93E0181F00041CDE91401C5
:104A8000439B429A03F0F8F8CDE9360100BF00BF1E
:104A90000021349135910020329033904E901DE0EA
:104AA0007AE199494E9801EBC00103C9CDE91201A1
:104AB00093494E9801EBC00103C9CDE91001DDE92E
:104AC000122303F067F8CDE91401DDE9342302F085
:104AD000BAFFCDE934014E98401C4E904A994E9849
:104AE0008842DED300204E900FE087494E9801EBBC
:104AF000C00103C9CDE91401DDE9322302F0A3FFAF
:104B0000CDE932014E98401C4E904A994E98884209
:104B1000EBD3DDE93223DDE9360103F03BF8CDE9E3
:104B20001401DDE93423DDE9380103F033F8CDE980
:104B30001201DDE9142302F086FFCDE93001DDE941
:104B4000300103F0CDFFCDE92C0100221346DDE951
:104B50002C0103F06BF92DD86C4A6D4BDDE92C016B
:104B600003F050F926D868494B9801EBC00103C9FE
:104B7000CDE9120162494B9801EBC00103C9CDE9AF
:104B80001001DDE9122302F05EFF00221346CDE999
:104B9000140103F04BF904D2DDE92C01CDE92C011D
:104BA0003DE05A4A5B4BDDE92C0102F0EDFFCDE917
:104BB0002C0134E0554A584BDDE92C0103F036F95D
:104BC0002DD800221346DDE92C0103F01BF926D273
:104BD0004D494B9801EBC00103C9CDE91201484989
:104BE0004B9801EBC00103C9CDE91001DDE91223A7
:104BF00002F0CAFF00221346CDE9140103F016F9B2
:104C000005D2DDE92C01CDE92C0108E023E23F4A81
:104C1000404BDDE92C0102F016FFCDE92C013B4AA7
:104C20003E4BDDE92C0103F001F90FD8374A384B30
:104C3000DDE92C0103F0E6F808D234483449DDE917
:104C40002C2302F0A1FFCDE92E0107E034483549BD
:104C5000DDE92C2302F098FFCDE92E010022134656
:104C6000314903C903F0CEF804D1304930482E4A07
:104C7000C2E900102C482F490CC803C902F0FCFF00
:104C8000CDE9140103F02CFF2B4A03C20022134686
:104C90004399429803F0B6F87ED0DDE92E0103F087
:104CA00035FA002878D1DDE92C0103F02FFA00282D
:104CB000F8D1214903C903F029FA0028F2D1134A97
:104CC000144BDDE92E0102F0D7FF00221B4BCDE98A
:104CD000100102F05FFF0022194BCDE9120102F032
:104CE00059FFCDE91401FFF764FA1649086011482D
:104CF00001460CC803C902F04DFF25E06009002001
:104D0000200D0020400B0020000F0020182D4454DF
:104D1000FB21F93FFB210940FB21F9BFFB2109C021
:104D20005E3855297A6A1F4010000020FCA9F1D294
:104D30004D62503F18000020700100200080664046
:104D40000000244050000020CDE91201C348014674
:104D50000CC803C902F01EFFCDE91001DDE91223E2
:104D600002F071FECDE9140104F07AF8BC4A03C2E6
:104D7000BC480CC8DDE92C0102F065FECDE912014A
:104D800004F016F8CDE91401B5480CC8149802F0E7
:104D900001FFCDE9280100E05BE1B2480CC8DDE984
:104DA0002C0102F050FECDE9120103F0ABFFCDE97A
:104DB0001401AB480CC8149802F0ECFECDE92601B2
:104DC0000022A94BDDE9280102F056FFA74AA84BB3
:104DD000CDE90C0102F050FF0022A64BCDE90E01F7
:104DE00002F0D8FECDE91001A348A449096800EB00
:104DF000C10103C9CDE90E01DDE9102302F0C4FEB3
:104E000000229F4BCDE9120102F0C4FECDE914014E
:104E100002F0DEFF9B49086097489849096800EB5B
:104E2000C10103C90022934BCDE9100102F024FF18
:104E30008E4A8F4BCDE9120102F0ACFECDE9140190
:104E400003F0B6FFCDE924018B498C48006801EBE3
:104E5000C00103C90022874BCDE9100102F00CFF0D
:104E6000824A834BCDE9120102F094FECDE9140190
:104E700003F048FFCDE922017A480CC8DDE92E0194
:104E800002F082FECDE92A01784A7F4BDDE92A0152
:104E900002F0CCFF08D2754A7B4BDDE92A0102F013
:104EA00073FECDE92A010EE0704A784BDDE92A0154
:104EB00002F0A8FF07D26D4A734BDDE92A0102F028
:104EC000C2FDCDE92A0100221346DDE92A0102F0E4
:104ED000ADFF55D8654A664BDDE92A0102F092FF25
:104EE0004ED2DDE924231046194602F053FE00227B
:104EF0005D4BCDE90401DDE9260102F0BDFECDE9FF
:104F0000000103F0FFFECDE90201DDE9042302F018
:104F10003BFECDE90601DDE9222302F0ADFECDE93D
:104F20000801DDE9222302F0A7FECDE90A0103F022
:104F300093FC4E4A4E4BCDE90C0102F09DFE00223F
:104F40004C4BCDE90E0102F025FECDE91001504891
:104F50004A49096800EBC10103C9CDE90E01DDE949
:104F6000102302F011FE0022454BCDE9120102F0A0
:104F700011FECDE9140102F02BFF464908604DE017
:104F8000DDE924231046194602F004FE0022364BC8
:104F9000CDE90401DDE9260102F06EFECDE9000154
:104FA00003F0B0FECDE90201DDE9042302F0ECFDDF
:104FB000CDE90601DDE9222302F05EFECDE908011C
:104FC000DDE9222302F058FECDE90A0103F044FC9A
:104FD000264A274BCDE90C0102F04EFE0022254B5C
:104FE000CDE90E0102F0D6FDCDE910012848234994
:104FF000096800EBC10103C9CDE90E01DDE9102309
:1050000002F021FD00221E4BCDE9120102F0C2FD8B
:10501000CDE9140102F0DCFE1E4908601D4800685D
:105020001D490860174800681C4900E005E0086059
:105030001B4800681B4908600BE0174800681549C9
:105040000860164800680F4908601648006814494F
:105050000860FDF744FF002051B000BD10000020A3
:105060006801002070010020AE4D5841182D4454B5
:10507000FB21094000806640400B00200800002012
:10508000804F224148000020FB211940FB2119C01C
:105090006009002044000020780100207C010020ED
:1050A000500000208001002045F25552084B1A6044
:1050B0001A46506091604AF6AA221A604CF6CC4219
:1050C0001A6070474AF6AA2001490860704700003C
:1050D0000030004031490143314A1160704770B5DA
:1050E000002100230F22C4780CB32D4C246804F453
:1050F000E064C4F5E064210AC1F10403CA404478C5
:1051000004FA03F18478144021430901254C067800
:10511000A155047804F01F050124AC4005786D11F9
:105120004FF0E02606EB8505C5F8004109E004785C
:1051300004F01F050124AC401B4D0678761145F89C
:10514000264070BD194A0A400243154B1B1F1A60C6
:10515000704739B1124A121D12680243104B1B1DD1
:105160001A6006E00E4A121D126882430C4B1B1D8A
:105170001A607047042808D14FF0E021096941F016
:1051800004014FF0E022116107E04FF0E0210969CE
:1051900021F004014FF0E022116170470000FA0590
:1051A0000CED00E000E400E080E100E080FFFF1F84
:1051B00001460020FB4A106800F0380008431060E8
:1051C0007047F849096821F00801F64A1160114654
:1051D0000968014311607047F249096821F0100124
:1051E000F04A116011460968014311607047EE48AA
:1051F000EC494860ED4848607047EA48006940F073
:105200008000E849086170470420E649C96811F048
:10521000010F01D001200EE0E249C96811F0040F2E
:1052200001D0022007E0DF49C96811F0100F01D05A
:10523000032000E00420704708B500200090FF2004
:10524000009002E00098401E009000980028F9D1DC
:1052500008BD70B504460425FFF7D6FF054605E0F6
:10526000FFF7EAFFFFF7D0FF0546641E012D01D1CD
:10527000002CF5D104B90525284670BD70B505464A
:10528000042440F6FF70FFF7E4FF0446042C19D114
:10529000C448006940F00200C249086108464561FF
:1052A000006940F04000086140F6FF70FFF7D1FF51
:1052B0000446012C06D0BB48006941F6FD71084048
:1052C000B8490861204670BD10B5042440F6FF704F
:1052D000FFF7BFFF0446042C18D1B248006940F024
:1052E0000400B04908610846006940F040000861C8
:1052F00040F6FF70FFF7ADFF0446012C06D0A94829
:10530000006941F6FB710840A6490861204610BDBE
:1053100010B5042440F6FF70FFF79BFF0446042CF1
:105320003BD1A1489F498860A04888600846006931
:1053300040F0200008610846006940F04000086124
:1053400040F6FF70FFF785FF0446042C1CD19548FA
:10535000006941F6DF71084092490861084600691A
:1053600040F010000861A520914908800F20FFF748
:1053700070FF0446012C10D08A48006941F6EF7195
:1053800008408849086108E0012C06D0854800697A
:1053900041F6EF71084083490861204610BD70B5A1
:1053A00005460E4604240F20FFF753FF0446042C45
:1053B00025D17C48006940F001007A4908612E80BF
:1053C0000F20FFF746FF0446042C0FD1300C6880F5
:1053D0000F20FFF73EFF0446012C10D071480069F2
:1053E00041F6FE7108406F49086108E0012C06D0C3
:1053F0006C48006941F6FE7108406A490861204620
:1054000070BD70B505460E4604240F20FFF721FF3E
:105410000446042C13D16348006940F0010061493F
:1054200008612E800F20FFF714FF0446012C06D0E0
:105430005C48006941F6FE7108405A4908612046FF
:1054400070BD70B505460E4604240F20FFF701FF1E
:105450000446042C17D15448524988605348886048
:105460000846006940F0100008612E800F20FFF709
:10547000F0FE0446012C06D04A48006941F6EF715F
:10548000084048490861204670BD2DE9F0470446B0
:105490004FF6FF763746B046B1460425E443E6B200
:1054A000C4F30727C4F307484FEA14690F20FFF736
:1054B000D0FE0546042D40D13B483A4988603B4820
:1054C00088600846006940F010000861FF2E06D091
:1054D0003748083006800F20FFF7BBFE0546042D35
:1054E00008D1FF2F06D032480A3007800F20FFF77F
:1054F000B0FE0546042D0AD1B8F1FF0F07D02C48A5
:105500000C30A0F800800F20FFF7A3FE0546042D05
:105510000AD1B9F1FF0F07D025480E30A0F800904E
:105520000F20FFF796FE0546012D06D01D480069A5
:1055300041F6EF7108401B4908612846BDE8F08735
:1055400070B50546042440F6FF70FFF782FE04465E
:10555000042C4AD1144813498860144888600846CE
:10556000006940F0200008610846006940F04000F2
:10557000086140F6FF70FFF76CFE0446042C2BD147
:105580000848006941F6DF7108400649086108468D
:10559000006940F01000086165B1002004490880EE
:1055A0000BE000000020024023016745AB89EFCDEE
:1055B00000F8FF1FA5204549088040F6FF70FFF75F
:1055C00048FE0446012C10D04148006941F6EF71B5
:1055D00008403F49086108E0012C06D03C480069BA
:1055E00041F6DF7108403A490861204670BD2DE957
:1055F000F04107460D461646042436483449886073
:10560000354888600F20FFF724FE0446042C1AD189
:105610002F48006940F010002D49086147EA050055
:10562000304340F0F8002949891C08800F20FFF71B
:1056300010FE0446012C06D02548006941F6EF71A2
:105640000840234908612046BDE8F0812048C06930
:10565000800870471E48006A704700201C49C969CD
:1056600011F0020F01D0012000E00020704700205F
:105670001749096811F0200F01D0012000E0002037
:10568000704729B1124A12690243114B1A6104E0B2
:105690000F4A126982430E4B1A617047014600207F
:1056A000012908D10A4AD26912F0010F01D0012064
:1056B00008E0002006E0064AD2680A4201D0012034
:1056C00000E0002070470249C860704700F8FF1FE3
:1056D0000020024023016745AB89EFCD10B5044699
:1056E000C549601A8C422FD009DCC448201810D05C
:1056F000B0F5806F16D0B0F5006F4AD11BE0B0F561
:10570000806F2AD0B0F5006F30D0B0F5406F40D137
:1057100035E00121042000F041FB0021042000F0CD
:105720003DFB37E00121082000F038FB0021082074
:1057300000F034FB2EE00121102000F02FFB0021AF
:10574000102000F02BFB25E00121202000F026FB9B
:105750000021202000F022FB1CE00121402000F06D
:105760001DFB0021402000F019FB13E001218020E7
:1057700000F014FB0021802000F010FB0AE0012162
:10578000080200F00BFB00214FF4807000F006FBD4
:1057900000E000BF00BF10BD10B50121084600F0B9
:1057A000FDFA0021012000F0F9FA10BD2DE9F041C9
:1057B000024600250026002000230024002791F83F
:1057C00003C00CF00F0591F803C01CF0100F03D0BC
:1057D00091F802C04CEA050591F800C0BCF1000F39
:1057E00031D0146800202BE04FF0010C0CFA00F3CC
:1057F000B1F800C00CEA03069E4220D183004FF0AE
:105800000F0C0CFA03F7BC4305FA03FC4CEA040442
:1058100091F803C0BCF1280F06D14FF0010C0CFA2F
:1058200000FCC2F814C00AE091F803C0BCF1480FB4
:1058300005D14FF0010C0CFA00FCC2F810C0401C5E
:105840000828D1D31460B1F800C0BCF1FF0F34DDDB
:10585000546800202EE000F1080C4FF0010808FA0F
:105860000CF3B1F800C00CEA03069E4221D183007C
:105870004FF00F0C0CFA03F7BC4305FA03FC4CEA9B
:10588000040491F803C0BCF1280F05D100F1080C05
:1058900008FA0CF8C2F8148091F803C0BCF1480F64
:1058A00007D100F1080C4FF0010808FA0CF8C2F813
:1058B0001080401C0828CED35460BDE8F0814FF61C
:1058C000FF710180022181700421C170704702467E
:1058D000002093680B4201D0012000E000207047B7
:1058E0000146886880B2704702460020D3680B42A8
:1058F00001D0012000E0002070470146C86880B256
:10590000704701617047416170470AB1016100E071
:1059100041617047C16070474FF480320A43826131
:105920008161826182698269704702460020344B3E
:1059300018684FF68073184040EA02100843304B55
:10594000186070472F49C8617047F0B50A460023B8
:105950000024002100252A4E7168C0F3034583B25C
:1059600000F44016B6F5401F08D121F07061244EB6
:10597000766826F07066224F7E6012E000F4801692
:10598000B6F5801F06D1032606FA05F4A14341F0BF
:10599000706106E0460D360103FA06F6B14341F0A8
:1059A000706122B1460D360103FA06F63143144EFA
:1059B0007160F0BD30B500228B071C0F0F2303FA76
:1059C00004F20F4B08338C1053F8243093430C4CE3
:1059D00008348D1044F8253023468C1053F82430B9
:1059E0008C07240F00FA04F42343054C08348D106F
:1059F00044F8253030BD00000014014000F8FEBF1F
:105A0000000001400000204210B50121080700F00D
:105A1000D2F900214FF0805000F0CDF910BD1B49A4
:105A20000862704719490861704701460020184A0A
:105A3000106820F0E000084310607047704710B510
:105A400002460020124B186820F003001043186033
:105A5000104B1B6843F004030E4C2360012901D155
:105A600030BF00E020BF10BD704701460020084A4B
:105A700052680A4201D0012000E00020704704492A
:105A8000096841EA8001024A1160704700000E4235
:105A90000070004010ED00E0DC48006840F00100BC
:105AA000DA49086008464068D9490840D749486043
:105AB00008460068D7490840D4490860084600688D
:105AC00020F4802008600846406820F4FE0048600A
:105AD000002088607047CD49096821F48031CB4AA5
