:020000040800F2
:10000000501E002001010008011200080312000820
:10001000071200080B1200080F1200080000000071
:1000200000000000000000000000000013120008A3
:10003000151200080000000017120008191200082D
:100040001B0100081B0100081B0100089B3C000865
:100050001B0100081B0100081B0100081B01000810
:100060001B0100081B0100081B0100081B01000800
:100070001B0100081B0100081B0100081B010008F0
:100080001B0100081B0100081B0100081B010008E0
:100090001B0100081B0100081B0100081B010008D0
:1000A0001B0100081B0100081B0100081B010008C0
:1000B000670F0008910D0008810F00081B01000860
:1000C0001B0100081B0100081B0100081B010008A0
:1000D0001B010008E52100086923000849270008E2
:1000E0001B0100081B0100081B010008DFF80CD0F1
:1000F00007F094FF0048004737010008501E002019
:100100000648804706480047FEE7FEE7FEE7FEE7B1
:10011000FEE7FEE7FEE7FEE7FEE7FEE77F79000881
:10012000ED00000801B502E00098401E0090009824
:100130000028F9D108BD00F0E0F82548806940F0BA
:100140000400234988610846806940F00100886105
:100150002048006820F00F001E490860084600682B
:1001600040F00800086000F0C4F801F0B2FB02F0B3
:10017000A0F800F0E2FD40F27121042004F080FFBD
:1001800003F0CCF8FF20FFF7CDFF03F063FC02F093
:10019000D3FE02F0DAFF00F03DFF00200E490870A8
:1001A00020210E4805F099FB08210C4805F095FB2D
:1001B00003F07AF90821094805F091FB06E003F005
:1001C0000BFF0748007808B900F078FCF7E700005B
:1001D0000010024000080140C8010020000C01404E
:1001E0006601002008B50121042005F0A9FD0121C8
:1001F000082005F0A5FD0820ADF8000010208DF8BE
:10020000030003208DF802006946BB4805F0BAFAE6
:100210004FF40040ADF8000010208DF803000320DB
:100220008DF802006946B44805F0ACFA1020ADF82C
:1002300000008DF8030003208DF802006946AF48E6
:1002400005F0A0FA4FF40060ADF8000010208DF822
:10025000030003208DF802006946A84805F092FAD1
:100260002020ADF8000010208DF8030003208DF849
:1002700002006946A04805F085FA4FF48050ADF8B9
:10028000000048208DF8030003208DF80200694625
:10029000994805F077FA4FF48040ADF80000482007
:1002A0008DF8030003208DF802006946924805F09E
:1002B00069FA1021914805F012FB4FF400618F4854
:1002C00005F00DFB8E480078012808D1C1038A484B
:1002D00005F003FB0821884805F0FFFA08E04FF419
:1002E0000041854805F0FBFA0821834805F0F7FA3C
:1002F00008BD10B5FFF776FF10BD1CB500200190BA
:1003000000908048006840F001007E49086008467F
:1003100040687D4908407B494860084600687B4941
:100320000840784908600846006820F4802008608A
:100330000846406820F4FE004860002088600846B7
:10034000006840F48030086000BF6E48006800F428
:10035000003000900198401C0190009818B9019855
:10036000B0F5A06FF1D16748006810F4003F02D0EB
:100370000120009001E0002000900098012843D166
:100380006348006840F01000614908600846006852
:1003900020F0030008600846006840F00100086093
:1003A00058484068574948600846406848600846D1
:1003B000406840F4806048600846406820F47C1043
:1003C00048600846406840F4881048600846006865
:1003D00040F08070086000BF4A48006810F0007F5D
:1003E000FAD04848406820F0030046494860084673
:1003F000406840F00200486000BF4248406800F09A
:100400000C000828F9D103E001E003F0E7FBFCE76A
:100410001CBD1CB50020019000903A48006840F0D7
:1004200001003849086008464068374908403549A6
:100430004860084600683549084032490860084667
:10044000006820F4802008600846406820F4FE0020
:100450004860002088600846006840F480300860EA
:1004600000BF2848006800F4003000900198401C4C
:100470000190009818B90198B0F5A06FF1D121480A
:10048000006810F4003F02D00120009001E000203D
:1004900000900098012829D11D48006840F0100004
:1004A0001B4908600846006820F003000860084601
:1004B0000068086013484068124948600846406870
:1004C00048600846406848600846406820F00300DD
:1004D00048600846406840F00100486000BF094895
:1004E000406800F00C000428F9D103E001E003F0BB
:1004F00075FBFCE71CBD0000000C0140000801403A
:1005000066010020001002400000FFF8FFFFF6FE29
:100510000020024070B502460D464FF6FF7141F2D1
:10052000210417E0012312E011F4004F05D04FF62B
:10053000FF7000EA4101614003E04FF6FF7000EAFE
:1005400041011078184200D061405806030E002B7C
:10055000EAD1521C2800A5F10106F5B2E2D1C84348
:1005600080B270BDF0B50346F84A1588F84A117894
:10057000002092E0082803DA0022F64C22548AE098
:10058000082818DB202816DAA0F10804E61704EB87
:100590005676F610F04FBE5D2246D71702EB57771E
:1005A000FF10A2EBC707C7F107073E4106F001069F
:1005B000E84F3E546FE0202813DB282811DAA0F121
:1005C0002002D41702EB5474E410A2EBC404C4F16B
:1005D0000706E24C2478344104F00104DD4E345423
:1005E00059E0282818DB282202EBC102824213DDE1
:1005F000A0F12804E61704EB5676F6109E5D22461D
:10060000D71702EB5777FF10A2EBC7073E4106F062
:100610000106D04F3E543EE0282202EBC102824246
:1006200018DC282202EBC1021032824212DDA0F156
:100630002804A4EBC102D41702EB14742411A2EB1A
:100640000414C4F10F0445FA04F404F00104C14E8B
:10065000345420E0282202EBC102103282421ADC1C
:10066000282202EBC1021832824214DDA0F12804D4
:10067000A4EBC104A4F11002D41702EB5474E410EB
:10068000A2EBC404C4F10706B44C2478344104F04E
:100690000104B04E3454421CD0B2372202EBC102E6
:1006A000183282423FF766AFF0BD30B5A84C2478CF
:1006B000102505EBC402002105E0A64C645CA84DA2
:1006C0006C544C1CA1B22829F7DB28212C202AE0ED
:1006D00005E0A04C645CA24D6C544C1CA1B2A1F18D
:1006E0002804032CF5DD9B4C645C9D4D2C54041FA9
:1006F0002C5D012C13D1C41E2C5D012C0FD1841E46
:100700002C5D012C0BD1441E2C5D012C07D12C46F5
:10071000245C012C03D1441CA0B200242C544C1C9A
:10072000A1B2441CA0B2A1F128049442D0DB07E09E
:10073000884C645C8A4D2C544C1CA1B2441CA0B261
:1007400002F12804A14202DB0834A142F0DB034697
:10075000184630BD08200FE08149095C31B9411EBF
:100760007F4A515CC1F10101115403E0411E7C4AF2
:10077000515C1154411C88B2FF28EDDD704710B563
:1007800000F052FF724801787648FFF7C3FE6F49C8
:1007900008807448FFF7E6FEFFF787FF724908708C
:1007A000FFF7D8FF002424E04CB96D49601C095CB8
:1007B0006B48005D01EB40006C49085517E0002CC8
:1007C00012DD6948007884420EDC601E6449085CD2
:1007D00081006348005D01EB4001614A601C105CD0
:1007E00008446249085502E0082060490855601C29
:1007F00084B2FF2CD8DD10BD10B500F07FFF544847
:1008000001785848FFF786FE504908805548FFF7A1
:10081000A9FEFFF74AFF56490870FFF79BFF002427
:1008200024E04CB94E49601C095C4D48005D01EB69
:1008300040005049085517E0002C12DD4C48007864
:1008400084420EDC601E4649085C81004448005D1D
:1008500001EB4001424A601C105C084445490855C0
:1008600002E0082043490855601C84B2FF2CD8DD03
:1008700010BD10B500F069FF354801783948FFF721
:1008800049FE324908803748FFF76CFEFFF70DFF3D
:1008900039490870FFF75EFF002424E04CB9304965
:1008A000601C095C2E48005D01EB4000334908558F
:1008B00017E0002C12DD3048007884420EDC601E08
:1008C0002749085C81002648005D01EB4001244A6D
:1008D000601C105C08442949085502E0082027499B
:1008E0000855601C84B2FF2CD8DD10BD70B5002403
:1008F0000025002622480078012868D140F2FF40F8
:1009000020490880FFF73BFF00BF5DE02046E1176C
:1009100004EB11610912A4EB01218DB2E11704EB84
:100920001161C1F30F2626B1012E2FD0022E47D11F
:1009300039E00D480078854204DA0C48405D1249E0
:10094000085502E01020104908553AE0AE01002099
:1009500084010020F8130020AA010020AD0100202E
:10096000F815002060020020B40100208D02002054
:10097000B50100208D030020B60100208D04002069
:100980005A01002092010020E010002089480078E0
:10099000854204DA8848405D8849085502E0102005
:1009A000864908550DE086480078854204DA854876
:1009B000405D8249085502E010208049085500E05A
:1009C00000BF00BF601C84B2FF2C9FDD17E040F227
:1009D000FF407D490880FFF7D2FE00240DE07B48F0
:1009E0000078844204DA7A48005D7449085502E0D0
:1009F000102072490855601C84B2FF2CEFDD70BDD9
:100A000070B50024002500267248007801283CD1EA
:100A100040F6FF106C490880FFF7EEFEFFF729FF54
:100A200000BF2EE02046E11704EB11610912A4EB90
:100A300001218DB2E11704EB1161C1F30F2616B14C
:100A4000012E1AD10CE05B480078854204DA5A483E
:100A5000405D5A49085502E01020584908550DE0FC
:100A600057480078854204DA5648405D5349085596
:100A700002E010205149085500E000BF00BF601C93
:100A800084B2B4F5007FCDDB17E040F2FF404E4961
:100A90000880FFF7B1FE00240DE04648007884424C
:100AA00004DA4548005D4549085502E010204349F5
:100AB0000855601C84B2FF2CEFDD70BD10B54648B0
:100AC0000078012875D102F09CFC002853D000204A
:100AD000424908704249087001203F490870C1032B
:100AE000404804F0FCFE08213E4804F0F8FE0120D6
:100AF00004F090FF04F0A4FF3B480078401C3A4902
:100B000008703A48008842F22831884202DB4810D7
:100B1000364908800020364908701021354804F015
:100B2000DEFE20212F4804F0D8FE4FF4006131484A
:100B300004F0D5FE4FF400412A4804F0D0FE02F044
:100B4000B5FE00F0A3F82C492C4803F0B5FB2C4867
:100B5000007878B100202B4908701F4908702A4995
:100B600008702A4908702A49087000F06AF80020C5
:100B7000284908801DE002F06BFCD0B117480078CE
:100B8000401C1649087008460078022811D101203F
:100B90001349087000F07AF802F066FF00F0B2F82E
:100BA0004FF400410F4804F098FE08210D4804F06E
:100BB00094FE10BDB50100208D030020E010002040
:100BC000B60100208D04002092010020B401002015
:100BD0008D0200205A01002058010020B70100209A
:100BE00066010020000C0140B0010020B20100208D
:100BF000C801002000080140E01300207B180020FD
:100C0000210000205B010020BC010020BB0100206E
:100C1000BA010020C201002008B54FF4A06004F022
:100C200045FA1D208DF8000003208DF801000020FA
:100C30008DF8020001208DF80300684604F03BFAAD
:100C400008BD0EB50121022005F087F8FFF7E4FF8B
:100C5000DB4805F0FFFA6320ADF804000920ADF889
:100C600000000020ADF80600ADF802008DF8080085
:100C70006946D34805F059FB01221146D04805F0DA
:100C8000F5FD0121CE4805F0D6FD0EBD10B50022C0
:100C90000121CB4805F0EAFD0021C94805F0CBFD54
:100CA00010BD1FB50121042005F057F841F287302F
:100CB000ADF8080041F61F40ADF804000020ADF883
:100CC0000A00ADF8060001A9BE4805F02EFB01227E
:100CD0001146BC4805F0CAFD1E208DF80000012019
:100CE0008DF8010000208DF8020001208DF803002E
:100CF000684604F0E0F91FBD10B50121B14805F0C8
:100D00009AFD10BD10B50021AE4805F094FD10BD50
:100D100008B54FF4E06004F0C9F91C208DF800001C
:100D200003208DF8010004208DF8020001208DF8C9
:100D30000300684604F0BFF908BD0EB5012108465E
:100D400005F00BF8FFF7E4FF4FF0804005F082FA62
:100D500041F28730ADF8040042F20700ADF8000020
:100D60000020ADF80600ADF8020069464FF0804063
:100D700005F0DBFA0121880706F038F80122114658
:100D8000900705F073FD0121880705F054FD0EBDA5
:100D900010B501218A4806F02CF800287ED08A4838
:100DA00000880A280AD18948007838B94FF40061D0
:100DB000874804F092FD0120844908708248008829
:100DC000B0F5827F1DD183480078D0B98248007881
:100DD00060B900F0B5F981480078C0F101007F49A1
:100DE000087002F0E0F8FFF781FD07E07A4800782C
:100DF000012803D100F0A4F9FFF702FE0120754994
:100E0000087071480088B0F5917F18D17448007857
:100E1000A8B974480088B0F5A67F02D100207149B6
:100E200008807048008818B16E480088012803D1F6
:100E30001021674804F051FD01206949087062489B
:100E40000088A0F58071E5390DD167480078012848
:100E500009D0002065490870654908806549088007
:100E600001206149087060480078012871D162480A
:100E70005F4A1288805C00EB8000604A02EB8000D1
:100E80005A4A127830F8220001B2092000F039F9EC
:100E900000BF02215A4805F0AAF900E062E00028EC
:100EA000F7D00121574804F018FD50480078042875
:100EB00008D100204D4908704D480088401C4C491D
:100EC000088004E049480078401C484908704948B7
:100ED0000088401C47490880084600884A4909881C
:100EE000884236DB00204049087042490880394971
:100EF0000870364908703A49087033490880364806
:100F0000007860B134480078012808D1002201211E
:100F10002B4805F0ABFC0021294805F08CFC4FF470
:100F200000612B4804F0DBFC1021294804F0D7FCB9
:100F30002C480088401C2B49088027480078401C1A
:100F40002549087008460078022802D101202F495F
:100F500008701D480088401C1B4908800121184862
:100F600005F058FF10BD10B50121880705F041FFBD
:100F700028B104F093F80121880705F04BFF10BD5C
:100F800010B501210F4805F034FFB8B120480078B2
:100F900040B94FF400411B4804F09FFC01201C495C
:100FA000087007E04FF40041164804F098FC002058
:100FB000174908700121034805F02CFF10BD0000FF
:100FC0000004004000080040C2010020BB010020D6
:100FD00000080140BC010020C80100205C01002085
:100FE000BA010020A80100205B010020BE01002002
:100FF000C0010020B8010020E0100020A400002063
:1010000000300140000C01409201002058010020F6
:10101000BD01002000B587B001210C2004F090FE36
:101020000121080304F08CFE0121084604F088FE2B
:101030002020ADF8040003208DF8060018208DF85C
:10104000070001A96A4804F09DFB4020ADF80400A8
:1010500001A9674804F096FB8020ADF8040001A9BF
:10106000634804F08FFB0120ADF8040003208DF8E5
:10107000060010208DF8070001A95E4804F082FBED
:1010800001215C4804F029FC4FF44040ADF8080011
:101090004FF48270ADF80A004FF40060ADF80C0018
:1010A0000020ADF80E00ADF810004FF40070ADF860
:1010B00012000020ADF81400ADF816000720ADF8BE
:1010C000180002A94C4804F071FF01214A4805F0BC
:1010D0000AF807B000BD10B504460121454804F0E8
:1010E000FCFB0121434804F0FAFB00BF0221424807
:1010F00005F07DF80028F9D021463F4805F024F896
:1011000010BD70B505460C46002C06DB44EA0530E0
:1011100086B23046FFF7DFFF11E000BF02213648FC
:1011200005F065F80028F9D0C4F30B0040F4006620
:1011300005F00F0046EA00363046FFF7CCFF70BDE1
:1011400010B54FF400710720FFF7DBFF002401E02A
:10115000601C84B2C82CFBDB03210520FFF7D1FF04
:10116000002401E0601C84B2C82CFBDB1F21062098
:10117000FFF7C7FF002401E0601C84B2C82CFBDB32
:1011800012210020FFF7BDFF01F014FF1B4800787B
:10119000012809D140210220FFF7B3FF40F26B3153
:1011A0000120FFF7AEFF08E07C210220FFF7A9FF36
:1011B00040F25B310120FFF7A4FF002401E0601C36
:1011C00084B2B4F5FA6FFADB00210820FFF799FF2B
:1011D00000210920FFF795FF00BF0221064805F016
:1011E00006F80028F9D00121024804F076FB10BD72
:1011F00000080140000C0140003001405C0100206B
:10120000704700BFFEE700BFFEE700BFFEE700BF7C
:10121000FEE7704770477047704700002DE9FF5F99
:10122000814600210E460F464FF0010BC8466BE089
:1012300098F800002E380C2829D2DFE800F0252885
:1012400006090C101316191C1F22002425461EE047
:101250000024C24D1BE000244FF0804517E000241D
:10126000BF4D14E00024BF4D11E00024BE4D0EE040
:101270000024BE4D0BE00024BD4D08E00024BD4D10
:1012800005E00024BC4D02E00024BC4D00BF00BFBF
:101290000022BA4B2046294606F0A0FD06D14FF0A9
:1012A000000B4FF0010A08F101082DE0BBF1010F1E
:1012B0000ED10022B24B3046394606F057FC22468A
:1012C0002B46CDE9020106F0AAFB06460F4618E0C0
:1012D0000AEB8A01480006F02AFD02460B46CDE9DA
:1012E00000012046294606F0B3FC32463B46CDE9D4
:1012F000020106F094FB06460F460AEB8A004FEA0D
:10130000400A08F1010800BF98F8000000288FD1BA
:101310003046394604B0BDE8F09F2DE9F04106465D
:101320000D460027284606F073FB804600240CE09B
:10133000285D2C2801D1781CC7B2B74203D1601CAC
:10134000C0B2BDE8F081601CC4B24445F0DB0020AF
:10135000F7E72DE9F0478EB0824651460120FFF7AE
:10136000DCFF0546002D07DC86A006F097FE002076
:101370008E490EB0BDE8F087681EC5B22A465146B8
:101380000AA806F039FB0F2D03DA00200AA94855F8
:1013900005E087A006F082FE00208449E9E70024EA
:1013A00017E00AA8005D2E2811D00AA8005D392890
:1013B00003DC0AA8005D302809DA86A006F06EFE7C
:1013C0000AA98EA006F06AFE00207849D1E7601CC9
:1013D000C4B20AA8005D0028E3D10AA8FFF71EFFE7
:1013E0000746884600228D4B3846414606F030FCC1
:1013F000CDE9080106F0B9FC0646642106FB01F0C0
:1014000006F095FC3A464346CDE9000106F0ABFBF9
:101410000022834BCDE9020106F0A8FBCDE90601CD
:10142000804906FB01F006F082FCCDE90401DDE90C
:10143000062306F0F4FACDE9080106F096FC814691
:10144000484606F074FC94E72DE9F04786B08146E3
:1014500049460120FFF761FF0446002C04DC002010
:10146000524906B0BDE8F087601EC4B22246494624
:1014700002A806F0C1FA002002A9085502A8FFF749
:10148000CDFE05460E4600223D4B2846314606F06D
:101490006DFB07460022314B06F0DAFBCDE9000177
:1014A00006F082FC8246504606F052FCD9E72DE950
:1014B000FF5F834659460120FFF72FFF8246AAF1BE
:1014C000010000F0FF0A5246594601A806F094FABE
:1014D000002001A901F80A0001A8FFF79FFE80463D
:1014E00089460022264B4046494606F03FFB064609
:1014F00000221A4B06F0ACFB044606F055FC0090A7
:10150000009806F025FC04B0BDE8F09F2DE9FE4FE1
:10151000814649460120FFF700FF0446601EC4B221
:1015200022464946684606F067FA00200DF8040096
:101530006846FFF773FE05460E460022074B284615
:10154000314606F085FB074606F02EFC82465046E3
:1015500006F0FEFB03B0BDE8F08F00000000F03F96
:101560000000084000001040000014400000184037
:1015700000001C40000020400000224000004740C6
:10158000000024404765745F446F75626C655F4E70
:10159000756D6265723A3A2073D6D0C3BBD3D0D58D
:1015A000D2B5BDB6BABAC50A000000008087C3C074
:1015B0004765745F446F75626C655F4E756D6265FB
:1015C000723A3A206275665B695DB7C3CECAD4BD14
:1015D000BDE70A004765745F446F75626C655F4ED6
:1015E000756D6265723A3A20627566D6D0B4E6D4FB
:1015F000DAB7C7B7A8D7D6B7FB0A00004765745F4C
:10160000446F75626C655F4E756D6265723A3A2023
:101610006275663A2025730A0000000000005940F8
:101620000088C340C027090048207C4908707C48D6
:101630000068C0F38750487079480068C0F387306D
:10164000887077480088C0F38710C87074480078A5
:101650008006000E087173480088000A48717148BE
:101660000078887170480068802141EA50506B49C9
:10167000C8716D480068C0F3473008726A48008836
:10168000C0F34710487268480078F82101EAC000AA
:1016900066490968C1F30261084460498872634879
:1016A0000068000CC87261480088000A08735F482F
:1016B000007848735E480088C0F3071088735C4860
:1016C00000780007000EC87307200874842048744F
:1016D00058480088C0F300300830887455480088A6
:1016E000C0F30710C87453480078042101EB0010C0
:1016F0004A49087515205049087070476021474ACB
:10170000117047490968C1F387515170444909680C
:10171000C1F38731917042490988C1F38711D170B3
:101720003F4909788906090E1171002007E0434AF4
:10173000411C525C411D394B5A54411CC8B20F2800
:10174000F5DB14213C4A1170704760203349087062
:1017500033480068C0F38750487031480068C0F3D0
:10176000873088702E480088C0F38710C8702C48D6
:101770000078012101EB80002849087100204871A0
:101780002F48007888712E484078C8712C4880789E
:1017900008722B48C0784872294800798872284816
:1017A00040792849097808431C49C872254840787F
:1017B00008732448807848732248C0788873214889
:1017C0000079C8731F4840791F49098840EA6110B1
:1017D000124908741C480078C0001C49098840EA76
:1017E000A1100E49487419480078800018490978FA
:1017F00040EA21100949887415480078000115490C
:10180000097840EAA1000549C874124800788007A9
:10181000000E087515200849087070476002002006
:10182000240000204C00002044000020480000203C
:101830005000002096000020840100202800002095
:10184000380000203E0000208A0100208C0100208A
:101850008E0100208F01002008B54FF4A06003F036
:1018600025FC25208DF8000003208DF801000020C4
:101870008DF8020001208DF80300684603F01BFC80
:1018800008BD00B58BB00121084604F04CFAF548BC
:1018900005F0CEFCF4480090F4480190002002903E
:1018A0006420039000200490802005900020069082
:1018B000079008904FF44050099000200A90694624
:1018C000E84805F04EFD0121E64805F075FD0BB036
:1018D00000BD00B585B0FFF7D4FFFFF7BDFF0121C4
:1018E00044F2040004F02CFA4FF40070ADF810003C
:1018F00018208DF8130003208DF8120004A9DC488D
:1019000003F040FF4FF48060ADF8100004208DF824
:10191000130004A9D64803F035FF4FF41650009089
:101920000020ADF80400ADF80600ADF80800ADF8F1
:101930000C000C20ADF80A006946CB48001F05F0EA
:10194000B6FA002240F22661C748001F05F029FBC5
:10195000002240F22551C448001F05F022FB01225D
:1019600040F22441C048001F05F01BFB012240212A
:10197000BD48001F05F035FB0121BB48001F05F0E5
:1019800004FB05B000BD70B504460D46E1B2B64893
:10199000001F05F062FB00BF4021B348001F05F0A7
:1019A000B3FB0028F8D0204670BD00BFAE48001F32
:1019B000008810F0200FF9D0AB480088C0F3080071
:1019C0007047F0B503460D461646002729460A2EF5
:1019D00003D0002008702846F0BD33B9302001F84C
:1019E000010B002008702846F6E7002B03DA2D20B3
:1019F00001F8010B5B4242F210720DE093FBF2F42E
:101A000004B937B104F1300001F8010B04FB1233C3
:101A100001270A2092FBF0F2002AEFDC0020087078
:101A20002846D9E70FB470B586B006460CA80190D9
:101A300073E00B9800785C281CD10B98401C0B902D
:101A400000786E2809D072280FD10D21304605F09C
:101A500004FB0B98401C0B900BE00A21304605F06C
:101A6000FCFA0B98401C0B9003E00B98401C0B9069
:101A700000BF4BE00B980078252840D10B98401C04
:101A80000B900078642818D0732833D1019810C8BF
:101A900001900BE02178304605F0DFFA00BF4021CD
:101AA000304605F031FB0028F9D0641C207800286E
:101AB000F0D10B98401C0B9020E0019820C80190B9
:101AC0000A2202A92846FFF77CFF02AC0BE021782E
:101AD000304605F0C2FA00BF4021304605F014FB45
:101AE0000028F9D0641C20780028F0D10B98401C05
:101AF0000B9003E00B98401C0B9000BF06E00B9886
:101B000010F8011B0B90304605F0A7FA00BF4021EA
:101B1000304605F0F9FA0028F9D00B980078002833
:101B200087D106B070BC5DF814FB10B500240EE040
:101B30005048015D4C48001F05F08FFA00BF4A482D
:101B4000001F008810F0800FF9D0601CC4B2122C66
:101B5000EEDB10BD70B54548007824287CD14348A1
:101B60004078162879D00EDC052877D006DC0128CD
:101B700018D0022873D0042872D11EE10C2870D02E
:101B80001228F9D1ADE12B287ED006DC17287CD0B5
:101B900018287BD02A28EFD140E2312877D032288C
:101BA000EAD1ECE23448007801287AD13348007851
:101BB00001283AD132480078012820D1002406E0DB
:101BC0002A49A01C085C2F490855601CC4B2102C7F
:101BD000F6DB00F0F9FD00F044FE242025490870F2
:101BE000012048708870032404E000202149085532
:101BF000601CC4B2122CF8DBFFF797FF51E02420E1
:101C00001C4908700120487002208870032404E0F9
:101C1000002018490855601CC4B2122CF8DBFFF7ED
:101C200084FF0020164908703BE0002406E00F49BD
:101C3000A01C085C13490855601CC4B2102CF6DBCC
:101C400000F0C2FD00F00DFE24200A4908700120BA
:101C500048708870032420E0C3E289E1C4E021E0F9
:101C6000BDE2E6E05800024004380140F8170020C9
:101C7000000801405C18002066010020620100207D
:101C80006101002028000020EBE19CE1B5E13AE28F
:101C90000020FE490855601CC4B2122CF8DBFFF787
:101CA00044FF9DE2FA48007801283BD1F9480078CA
:101CB00001284DD1F8480078012834D10020F74997
:101CC0000860F7488078096801EB0060F349086014
:101CD000F348C078096801EB0040F0490860F0481B
:101CE0000079096801EB0020EC490860EC48407974
:101CF00009680844E949086000F0BFFD00F0EAFD0A
:101D00002420E249087002204870012088700324D2
:101D100004E00020DD490855601CC4B2122CF8DB39
:101D2000FFF703FF48E02420D849087002204870DC
:101D30008870032404E00020D4490855601CC4B214
:101D4000122CF8DBFFF7F1FE0020D349087033E0D6
:101D50000020D2490860D2488078096801EB006011
:101D6000CE490860CE48C078096801EB0040CB49F5
:101D70000860CB480079096801EB0020C74908607A
:101D8000C748407909680844C449086000F075FDF7
:101D900000F0A0FD2420BD490870022048700120F9
:101DA0008870032404E00020B8490855601CC4B2C0
:101DB000122CF8DBFFF7B9FE12E2B54800780128D3
:101DC00011D12420B149087004204870002406E095
:101DD000B448015DAD4AA01C1154601CC4B2102C63
:101DE000F6DBFFF7A2FEFBE1A948007801281FD12E
:101DF0002420A64908700520487000240BE0182014
:101E0000A0EBC401A5480068C840C1B29F4AA01C0D
:101E10001154601CC4B2042CF1DB062404E0002041
:101E20009A490855601CC4B2122CF8DBFFF77DFEFE
:101E3000D6E197480078012852D1002404E0FF2021
:101E400099490855601CC4B2062CF8DB00F048FD27
:101E500000F090FD00208F4908708F4908708F496D
:101E6000086000F00AFD00F035FD0A2404E00020BF
:101E70008C490855601CC4B2102CF8DB00F0A4FC9F
:101E800000F0EFFC00F0F1FD8848008888490880E8
:101E9000864800888749088000F078FD0020864940
:101EA000087001F080F801F085F80020834908608F
:101EB0008349086000F0CDFF01F03EF8242073490B
:101EC00008700C20487001208870032404E0002072
:101ED0006E490855601CC4B2122CF8DBFFF725FED2
:101EE0007EE16B480078012841D16D4880796F49C7
:101EF0000880084600884FF6FF7101EA00206B4910
:101F000008806748C079098808446849088064489F
:101F1000007A6C490880084600884FF6FF7101EA94
:101F20000020684908805E48407A0988084465496D
:101F300008805E4800885E4908805C4800885D49EA
:101F4000088000F023FD00F090FD24204F49087028
:101F50001220487001208870032404E000204B49BF
:101F60000855601CC4B2122CF8DBFFF7DEFD37E128
:101F700047480078012825D1534800685349086034
:101F80005148001F006848604F4808380068886062
:101F900000F0ACFD00F0E3FD40F201104C49088078
:101FA00000F0F3FD242039490870162048700224FF
:101FB00004E0002035490855601CC4B2122CF8DB3F
:101FC000FFF7B3FD0CE1002042490870FEF75EFE0A
:101FD00001F04AFD24202D49087017204870012087
:101FE0008870032404E0002028490855601CC4B20E
:101FF000122CF8DBFFF799FDF2E02420234908704A
:1020000018204870022404E0002020490855601C74
:10201000C4B2122CF8DBFFF788FDE1E01C48007821
:1020200001281DD11E488078012802D12A49087054
:1020300002E000202849087000F0C3FF2420134963
:1020400008702A20487001208870032404E00020D2
:102050000E490855601CC4B2122CF8DBFFF765FD71
:10206000BEE00B48007801284CD10D48C0780C49DF
:10207000897800EB0120194908800948007918493E
:10208000087000F0D4FD242000492BE05C180020EB
:102090006601002062010020610100202400002070
:1020A000F817002028000020A00100209A0100203D
:1020B00096010020940100205C01002044000020D3
:1020C0004800002098010020F0F7FF1FEC130020CB
:1020D0006401002058010020A20000208601002099
:1020E0008801002008702B2048700120887003248C
:1020F00004E0002049490855601CC4B2122CF8DBEA
:10210000FFF713FD6CE046480078012836D14549B9
:10211000C978444A927801EB022005F008FE424A51
:1021200003C24048007958B93E4989793D4A5279FD
:1021300001EB0221484205F0FAFD3C4A03C209E0E6
:1021400038498979374A527901EB022005F0EFFDD1
:10215000364A03C200F091FF242030490870312034
:10216000487001208870032404E000202B490855A2
:10217000601CC4B2122CF8DBFFF7D7FC00BF284864
:10218000007801282AD1284903C905F0EEFD06464A
:10219000264903C905F0E9FD054624201F490870BA
:1021A00032204870300A8870CE70002D02DD012088
:1021B000087103E00020194908716D42280A174987
:1021C00048718D71072404E0002014490855601CF3
:1021D000C4B2122CF8DBFFF7A8FC00BF00E000BF80
:1021E00000BF70BD10B5002440F22441104804F037
:1021F00097FF88B100210F4805F0DEF80C480488ED
:10220000001D0488FFF7A6FC64200A495839C865F8
:102210000121084805F0D0F800BF10BD5C1800206F
:1022200066010020F8170020100000201800002090
:10223000003801405800024008B54FF4A06002F099
:1022400035FF26208DF8000000208DF801008DF864
:10225000020001208DF80300684602F02CFF08BD43
:1022600000B58BB00121084603F05DFD574804F02E
:10227000DFFF5748009057480190002002904FF42C
:10228000C8700390002004908020059000200690E4
:10229000079008904FF40050099000200A9069467A
:1022A0004A4805F05EF80121484805F085F80BB072
:1022B00000BD00B585B0FFF7D3FFFFF7BDFF0121DB
:1022C000042003F03DFD0121480403F046FD0420F5
:1022D000ADF8100018208DF8130003208DF81200BF
:1022E00004A93D4803F04EFA0820ADF81000042080
:1022F0008DF8130004A9384803F044FA4FF416503F
:1023000000900020ADF80400ADF80600ADF808001C
:10231000ADF80C000C20ADF80A0069462C48001FEF
:1023200004F0C5FD002240F226612948001F04F098
:1023300038FE002240F225512548001F04F031FEEE
:10234000012240F224412248001F04F02AFE01220B
:1023500040211F48001F04F044FE01211C48001FBB
:1023600004F013FE05B000BD70B50024002540F256
:1023700024411748001F04F0D3FE88B10021134800
:1023800005F01AF81248001F0488001D04884FF455
:10239000C8700E496C39086701210C4805F00CF82B
:1023A0004FF45A710A48001F04F0BAFE28B14FF4E6
:1023B0005A710748001F04F0D9FE40F22441044836
:1023C000001F04F0D3FE00BF70BD00006C0002408F
:1023D000044400407B1800200008014008B54FF479
:1023E000A06002F063FE27208DF8000003208DF826
:1023F000010000208DF8020001208DF803006846DE
:1024000002F059FE08BD00B58BB00121084603F06B
:102410008AFCDF4804F00CFFDE480090DE480190A3
:10242000002002901220039000200490802005904C
:1024300000200690079008904FF44050099000202B
:102440000A906946D24804F08CFF0121D04804F07C
:10245000B3FF0BB000BD00B585B0FFF7BFFFFFF7BE
:10246000D2FF0121082003F06BFC0121880403F056
:1024700074FC4FF48060ADF8100018208DF8130044
:1024800003208DF8120004A9C44803F07BF94FF42F
:102490000060ADF8100004208DF8130004A9BF48B7
:1024A00003F070F94FF4165000900020ADF80400CE
:1024B000ADF80600ADF80800ADF80C000C20ADF842
:1024C0000A006946B348001F04F0F1FC002240F204
:1024D0002661B048001F04F064FD002240F225513F
:1024E000AC48001F04F05DFD012240F22441A948E0
:1024F000001F04F056FD01224021A648001F04F0F1
:1025000070FD0121A348001F04F03FFD05B000BD90
:1025100010B500240EE0A248015D9E48001F04F0A3
:102520009CFD00BF9B48001F008810F0800FF9D071
:10253000601CC4B2122CEEDB10BD10B5044621465F
:10254000984804F08AFD00BF9648008810F0800F7C
:10255000FAD010BD10B590480078242875D18E4867
:102560004078102859D00CDC062832D004DC012831
:1025700010D003286AD11FE00C2869D00F28F9D1A8
:1025800034E012287AD0172876D0182875D01A2867
:10259000F0D1B4E02420844908700120487088708C
:1025A000032404E0002080490855601CC4B2122CAA
:1025B000F8DBFFF7BAFAC5E0002405E07648005DD5
:1025C00079490855601CC4B2122CF7DBFFF7ADFA4D
:1025D000B8E0002405E07048005D73490855601CB0
:1025E000C4B2122CF7DBFFF7A0FAABE000206F4972
:1025F000087000F025FE6E4800886E4908806C481F
:1026000000886D49088000F0F1FD00F048FC0120D1
:102610006A4908706A49087094E000F011FE644845
:10262000008864490880624800886349088000F097
:10263000DDFD00F096FB01F017FA01F048F90120EA
:1026400003F0E8F903F0FCF97CE07CE079E0FFE7D7
:102650002420554908700C204870012088700324FC
:1026600004E0002050490855601CC4B2122CF8DB6D
:10267000FFF75BFA66E001E013E02FE024204A490F
:1026800008701220487001208870032404E00020A4
:1026900045490855601CC4B2122CF8DBFFF745FA17
:1026A00050E0002045490870FEF7F0FA01F0DCF92F
:1026B00024203D49087017204870012088700324A9
:1026C00004E0002038490855601CC4B2122CF8DB25
:1026D000FFF72BFA01203B49087033E024203249F0
:1026E000087018204870022404E000202E49085584
:1026F000601CC4B2122CF8DBFFF717FA22E0264860
:10270000807878B900202F49087001202B49087083
:10271000C103224803F0E3F8012003F07BF903F042
:102720008FF90DE0012027490870FEF7AFFA01F09C
:102730009BF9FEF7E7FA4FF40041184803F0CDF893
:1027400000E000BF00BF10BD10B5002440F22441DE
:102750001048001F04F0E4FCB8B100210C4804F05C
:102760002BFE0C48001F0488001D0488084804F054
:1027700037FEC0F11204FFF7EDFE12200449303994
:1027800048630121024804F017FE00BF10BD00009D
:1027900030000240044800400B1A0020000C0140A9
:1027A0002A1A0020003801405C180020C8010020CF
:1027B0009A01002096010020940100205801002079
:1027C000670100206601002010B50420FE49087052
:1027D0000120FE49087002F0F6FC352002F05FFF90
:1027E000FB480068FB490968401A800AFA490860FA
:1027F000F8490968F84A12684FF4806303FB021035
:1028000002F028FDF0490870F2480068F3490860BA
:10281000002423E0032000EB8400F14A105C000652
:10282000022202EB8402EE4B9A5C00EB0240012292
:1028300002EB84029A5C00EB02201A4612F8242074
:102840008118E648006802F096FDDF490870E34809
:102850000068001DE1490860601CC4B2042CD9DB8B
:1028600010BD002006E0DB490968095CDC4A115410
:10287000411CC8B21028F6DB704710B50420D249BD
:1028800008700120D149087002F09DFC352002F04B
:1028900006FFCF484068CF494968401A800ACE49B0
:1028A0000860CC494968CC4A12684FF4806303FB46
:1028B000021002F0CFFCC4490870C6484068C749FE
:1028C0000860C8480168C548006802F054FDBE4968
:1028D000087010BDBF4840680068C2490860704772
:1028E00010B50420B84908700120B849087002F0FA
:1028F0006AFC352002F0D3FEB5488068B549896886
:10290000401A800AB4490860B2498968B24A12681C
:102910004FF4806303FB021002F09CFCAA4908708C
:10292000AC488068AD490860AF48C0780006AE4A40
:10293000927800EB0240AC4A527800EB0220AA4A9F
:1029400012788118A548006802F015FD9E490870AC
:10295000A2480068001DA1490860A3480079A24A66
:10296000527900EB02219D48006802F004FD96496F
:10297000087010BD002006E096498968095C9A4AF3
:102980001154411CC8B20628F6DB704710B504206C
:102990008D49087001208D49087002F014FC352023
:1029A00002F07DFE8A4800698A490969401A800A56
:1029B0008949086087490969874A12684FF480632A
:1029C00003FB021002F046FC7F4908708148006951
:1029D00082490860854801888048006802F0CBFC85
:1029E000794908707D480068001D7C49086080486E
:1029F00001887A48006802F0BEFC73490870774885
:102A00000068001D754908607A48018873480068AD
:102A100002F0B1FC6C49087070480068001D6F49F5
:102A20000860754801886D48006802F0A4FC66499A
:102A300008706A480068001D684908600846006818
:102A4000001D08606D4801886448006802F0C5FCFC
:102A50005D49087068480188042004F0C0FB67489D
:102A600001880C2004F0BBFB10BD10B5594800696B
:102A70005A4908600846006800885C490880574841
:102A80000068001D554908600846006800885849DC
:102A9000088052480068001D5049086008460068D8
:102AA0000088544908804D480068001D4B49086063
:102AB0000846006800885049088048480068001DA2
:102AC0004649086008460068001D0860084600681E
:102AD00000884A49088048480188042004F07FFBA8
:102AE000464801880C2004F07AFB10BD10B5042084
:102AF0003549087001203549087002F064FB352023
:102B000002F0CDFD3248406932494969401A800AD5
:102B1000314908602F4949692F4A12684FF4806390
:102B200003FB021002F096FB274908702948406910
:102B30002A49086000240FE0314850F82410274843
:102B4000006802F018FC2049087024480068001D45
:102B500022490860601CC4B2022CEDDD10BD1D4985
:102B600049691E4A116000200CE01C490968096887
:102B7000234A42F8201019490968091D174A1160B3
:102B8000411CC8B20228F0DD704710B504200E4980
:102B9000087001200D49087002F015FB352002F085
:102BA0007EFD0B4880690B498969401A800A0A49F1
:102BB000086008498969084A12684FF4806303FB7A
:102BC000021002F047FB1DE03C0200203D02002005
:102BD00000020020CC010020380200203402002036
:102BE0002800002024000020A001002098010020DF
:102BF0009A0100209C0100209601002094010020F1
:102C0000EC130020FE490870FE488069FE49086008
:102C1000FE480188FC48006802F0DFFBF8490870B4
:102C200010BDF84880690088F8490880704710B5E1
:102C30000420F34908700120F549087002F0C3FA36
:102C4000352002F02CFDF348C069EE49C969401AED
:102C5000800AF1490860EB49C969EF4A12684FF4EC
:102C6000806303FB021002F0F5FAE5490870E548BD
:102C7000C069E5490860E9480188E348006802F056
:102C80007AFBDF490870E0480068001DDE490860F3
:102C9000E3480178DC48006802F06DFBD849087011
:102CA00010BDD848C069D8490860D648C0690088B6
:102CB000DA490880D4480068001DD34908600846F6
:102CC00000680078D6490870D449088800EBD071B4
:102CD0004910B0EB41010FD0D049088800EBD0710A
:102CE0004910D04A1180CD49088800EBD0714910B5
:102CF000491CCD4A11800DE0C849088800EBD0710D
:102D00004910C84A1180C549088800EBD0714910A4
:102D1000C54A1180C249087800EBD0714910B0EB68
:102D200041010FD0BE49087800EBD0714910BF4A6D
:102D30001170BB49087800EBD0714910491CBC4A9E
:102D400011700DE0B649087800EBD0714910B74A10
:102D50001170B349087800EBD0714910B44A117072
:102D6000704710B50420A64908700120A8490870D2
:102D700002F029FA352002F092FCA648806AA149A7
:102D8000896A401A800AA44908609E49896AA24A51
:102D900012684FF4806303FB021002F05BFA98495B
:102DA00008709848806A98490860A2480168964867
:102DB000006802F0E0FA9249087093480068001D2C
:102DC000914908609C4801688F48006802F0D3FA76
:102DD0008B4908708C480068001D8B490860974833
:102DE00001688948006802F0C6FA8549087086487B
:102DF0000068001D844908609148016882480068A5
:102E000002F0B9FA7E4908708A480068010C102067
:102E100004F0E5F988480068010C142004F0DFF99B
:102E20008448008881B21C2004F0D9F982480088C7
:102E300081B2202004F0D3F98048008881B2242098
:102E400004F0CDF97E48008881B2282004F0C7F94B
:102E500010BD10B577480068010C102004F0BFF9D0
:102E600075480068010C142004F0B9F97148008815
:102E700081B21C2004F0B3F96F48008881B2202091
:102E800004F0ADF96D48008881B2242004F0A7F960
:102E90006B48008881B2282004F0A1F910BD10B55C
:102EA0005848806A584908600846006800686149C7
:102EB000086055480068001D5349086008460068CE
:102EC00000685D49086050480068001D4E49086070
:102ED000084600680088594908604B480068001D92
:102EE000494908600846006800885549086051480B
:102EF0000068010C102004F072F94F480068010CC2
:102F0000142004F06CF94B48008881B21C2004F0B6
:102F100066F94948008881B2202004F060F94748EA
:102F2000008881B2242004F05AF94548008881B213
:102F3000282004F054F910BD10B500203D49086068
:102F40003D4908603D4908603D490860102004F093
:102F50004AF93849086008460088000408601C20C7
:102F600004F041F9334909680844324908601420E3
:102F700004F039F930490860084600880004086008
:102F8000202004F030F92C49096808442A490860D7
:102F9000242004F028F929490860282004F023F9A6
:102FA0002749086010BD10B526480178182004F0A4
:102FB00016F910BD10B5182004F015F92149087054
:102FC00010BD10B504200E4908700120104908708A
:102FD00002F0F9F8352002F062FB0E48C06809499A
:102FE000C968401A800A0C4908600649C9680A4A3B
:102FF00012684FF4806303FB021002F02BF923E008
:103000003C020020CC01002034020020640100209A
:103010003D0200200002002038020020860100202E
:10302000880100208A0100208C0100208E010020F0
:103030008F01002044000020480000204C000020A8
:10304000500000205C010020A1490870A148C06820
:10305000A1490860A14801789F48006802F08BF9F7
:103060009B49087010BD9B48C0689B490860084692
:103070000068007899490870704710B50420944999
:10308000087001209649087002F09DF8352002F082
:1030900006FB9448006A8F49096A401A800A9249DF
:1030A00008608C49096A904A12684FF4806303FBF8
:1030B000021002F0CFF8864908708648006A8649F7
:1030C00008608A4903C904F050FE0446214682483C
:1030D000006802F050F97E4908707F480068001DC2
:1030E0007D490860824903C904F03FFE0446214639
:1030F0007948006802F03FF97549087010BD10B5B5
:103100007448006A744908600968086804F00FFE92
:10311000764A03C270480068001D6F49086009685C
:10312000086804F004FE724A03C210BD10B50820FE
:1031300004F059F86F49087008460078012803D058
:10314000FDF7AFFDFDF7D8FD10BD10B5002406E07A
:1031500060480068005D68490855601CC4B2102CC6
:10316000F6DB5C484068006864490860002406E0BB
:1031700058488068005D62490855601CC4B2062C3E
:10318000F6DBFFF770FFFFF78CFD524800695249EC
:1031900008600846006800885A4908804E48006860
:1031A000001D4D490860084600680088564908809F
:1031B00049480068001D48490860084600680088C2
:1031C00052490880042004F00EF8514908800C2070
:1031D00004F009F84F490880FFF7AEFEFFF78FFFB4
:1031E000182004F000F84C49087010BD10B53A489A
:1031F0000068001D38490860454801883648006865
:1032000002F0B9F83249087033480068001D3249AD
:10321000086008460068001D08603E4801882E4886
:10322000006802F0DAF82A49087039480188042059
:1032300003F0D5FF374801880C2003F0D0FF10BD04
:1032400010B52448006924490860084600680088D1
:103250002C49088020480068001D1F490860084666
:1032600000680088284908801B480068001D1A492A
:1032700008600846006800882449088016480068ED
:10328000001D15490860084600680088204908802C
:1032900011480068001D1049086008460068001DBC
:1032A00008600846006800881A49088018480188A4
:1032B000042003F094FF174801880C2003F08FFFCF
:1032C000FFF73AFE182003F08EFF1349087010BD77
:1032D0003C020020CC01002034020020A20000208B
:1032E0003D020020000200203802002010000020D3
:1032F00018000020A7010020280000202400002042
:10330000A0010020980100209A0100209C010020CB
:1033100096010020940100205C01002000B587B0D8
:1033200001214FF4027002F00BFD4FF4004002F057
:103330006EFC0220ADF8040000208DF8070001A902
:10334000574802F01FFA574804F090F80020029006
:103350008DF80C008DF80D004FF4602004900020D3
:10336000059001208DF8180002A94E4804F0ABF832
:1033700001214C4804F0D3F84A4804F0F2F800BFA9
:10338000484804F0F3F80028FAD1464804F0F8F869
:1033900000BF444804F0F9F80028FAD107B000BD96
:1033A00010B504460723012221463E4804F023F9C4
:1033B00001213C4804F0F3F800BF0221394804F031
:1033C00040FA0028F9D0374804F07CF910BD2DE907
:1033D000F04180460C46002500260BE04046FFF7F2
:1033E000DFFF0544002701E0781C87B2642FFBDB78
:1033F000701C86B2A642F1DBB5FBF4F080B2BDE8EA
:10340000F08170B503210920FFF7E1FF40F2DC51A4
:1034100088421BDA002409E0002501E0681C85B21F
:1034200040F2E2408542F9DB601C84B240F2262083
:103430008442F1DB03210920FFF7C9FF40F2DC5190
:10344000884201DA012070BD0020FCE70020FAE785
:1034500070B503210920FFF7BAFF40F2DC51884222
:103460001BDB002409E0002501E0681C85B240F266
:10347000E2408542F9DB601C84B240F2262084429F
:10348000F1DB03210920FFF7A2FF40F2DC51884263
:1034900001DB012070BD0020FCE70020FAE70000FE
:1034A000000C01400024014010B547F23050FCF7F9
:1034B00039FE47F23050FCF735FE47F23050FCF74A
:1034C00031FE47F23050FCF72DFE47F23050FCF74A
:1034D00029FE47F23050FCF725FE47F23050FCF74A
:1034E00021FE47F23050FCF71DFE47F23050FCF74A
:1034F00019FE47F23050FCF715FE47F23050FCF74A
:1035000011FE47F23050FCF70DFE47F23050FCF749
:1035100009FE47F23050FCF705FE47F23050FCF749
:1035200001FE47F23050FCF7FDFD47F23050FCF74A
:10353000F9FD47F23050FCF7F5FD47F23050FCF74B
:10354000F1FD47F23050FCF7EDFD47F23050FCF74B
:10355000E9FD47F23050FCF7E5FD47F23050FCF74B
:10356000E1FD47F23050FCF7DDFD47F23050FCF74B
:10357000D9FD47F23050FCF7D5FD47F23050FCF74B
:10358000D1FD47F23050FCF7CDFD47F23050FCF74B
:10359000C9FD47F23050FCF7C5FD47F23050FCF74B
:1035A000C1FD47F23050FCF7BDFD47F23050FCF74B
:1035B000B9FD47F23050FCF7B5FD47F23050FCF74B
:1035C000B1FD47F23050FCF7ADFD47F23050FCF74B
:1035D000A9FD47F23050FCF7A5FD47F23050FCF74B
:1035E000A1FD47F23050FCF79DFD47F23050FCF74B
:1035F00099FD47F23050FCF795FD47F23050FCF74B
:1036000091FD47F23050FCF78DFD47F23050FCF74A
:1036100089FD47F23050FCF785FD47F23050FCF74A
:1036200081FD47F23050FCF77DFD47F23050FCF74A
:1036300079FD47F23050FCF775FD47F23050FCF74A
:1036400071FD47F23050FCF76DFD47F23050FCF74A
:1036500069FD47F23050FCF765FD47F23050FCF74A
:1036600061FD47F23050FCF75DFD47F23050FCF74A
:1036700059FD47F23050FCF755FD47F23050FCF74A
:1036800051FD47F23050FCF74DFD47F23050FCF74A
:1036900049FD47F23050FCF745FD47F23050FCF74A
:1036A00041FD47F23050FCF73DFD47F23050FCF74A
:1036B00039FD47F23050FCF735FD47F23050FCF74A
:1036C00031FD47F23050FCF72DFD47F23050FCF74A
:1036D00029FD47F23050FCF725FD47F23050FCF74A
:1036E00021FD47F23050FCF71DFD47F23050FCF74A
:1036F00019FD47F23050FCF715FD47F23050FCF74A
:1037000011FD47F23050FCF70DFD47F23050FCF749
:1037100009FD47F23050FCF705FD47F23050FCF749
:1037200001FD47F23050FCF7FDFC47F23050FCF74A
:10373000F9FC47F23050FCF7F5FC47F23050FCF74B
:10374000F1FC47F23050FCF7EDFC47F23050FCF74B
:10375000E9FC47F23050FCF7E5FC47F23050FCF74B
:10376000E1FC47F23050FCF7DDFC47F23050FCF74B
:10377000D9FC47F23050FCF7D5FC47F23050FCF74B
:10378000D1FC47F23050FCF7CDFC47F23050FCF74B
:10379000C9FC47F23050FCF7C5FC47F23050FCF74B
:1037A000C1FC47F23050FCF7BDFC47F23050FCF74B
:1037B000B9FC47F23050FCF7B5FC47F23050FCF74B
:1037C000B1FC47F23050FCF7ADFC47F23050FCF74B
:1037D000A9FC47F23050FCF7A5FC47F23050FCF74B
:1037E000A1FC47F23050FCF79DFC47F23050FCF74B
:1037F00099FC47F23050FCF795FC47F23050FCF74B
:1038000091FC47F23050FCF78DFC47F23050FCF74A
:1038100089FC47F23050FCF785FC47F23050FCF74A
:1038200081FC47F23050FCF77DFC47F23050FCF74A
:1038300079FC47F23050FCF775FC47F23050FCF74A
:1038400071FC47F23050FCF76DFC47F23050FCF74A
:1038500069FC47F23050FCF765FC47F23050FCF74A
:1038600061FC47F23050FCF75DFC47F23050FCF74A
:1038700059FC47F23050FCF755FC47F23050FCF74A
:1038800051FC47F23050FCF74DFC47F23050FCF74A
:1038900049FC47F23050FCF745FC47F23050FCF74A
:1038A00041FC47F23050FCF73DFC10BD10B54FF421
:1038B0000041664802F011F8FFF7F6FD6448007811
:1038C00020B94FF40041614802F009F810BD10B56D
:1038D0000024B7E04FF400415C4801F0FEFF47F2DE
:1038E0003050FCF71FFC47F23050FCF71BFC47F24E
:1038F0003050FCF717FC47F23050FCF713FC47F24E
:103900003050FCF70FFC47F23050FCF70BFC47F24D
:103910003050FCF707FC47F23050FCF703FC47F24D
:103920003050FCF7FFFB47F23050FCF7FBFB47F24F
:103930003050FCF7F7FB47F23050FCF7F3FB47F24F
:103940003050FCF7EFFB47F23050FCF7EBFB47F24F
:103950003050FCF7E7FB47F23050FCF7E3FB47F24F
:103960003050FCF7DFFB47F23050FCF7DBFB47F24F
:103970003050FCF7D7FB47F23050FCF7D3FB47F24F
:103980003050FCF7CFFB32480078012858D04FF474
:1039900000412E4801F0A3FF47F23050FCF7C2FB74
:1039A00047F23050FCF7BEFB47F23050FCF7BAFB51
:1039B00047F23050FCF7B6FB47F23050FCF7B2FB51
:1039C00047F23050FCF7AEFB47F23050FCF7AAFB51
:1039D00047F23050FCF7A6FB47F23050FCF7A2FB51
:1039E00047F23050FCF79EFB47F23050FCF79AFB51
:1039F00047F23050FCF796FB47F23050FCF792FB51
:103A000047F23050FCF78EFB47F23050FCF78AFB50
:103A100047F23050FCF786FB47F23050FCF782FB50
:103A200047F23050FCF77EFB47F23050FCF77AFB50
:103A300047F23050FCF776FB47F23050FCF772FB50
:103A4000601C84B20A2CFFF645AF10BD000C01408B
:103A50006601002010B501214FF0C05002F07DF941
:103A6000012001F0C8FF10BD10B51021564801F02B
:103A700036FF4FF40061544801F031FF20215348D4
:103A800001F02DFF00205249087010BD10B505212E
:103A90000920FFF79CFC044640F68A60844203DD5F
:103AA00009204C49087054E040F62D60844207DD3F
:103AB00040F68A60844203DC08204649087048E0EA
:103AC00040F6D650844207DD40F62D60844203DC88
:103AD0000720404908703CE040F67750844207DDFB
:103AE00040F6D650844203DC06203A49087030E0A4
:103AF00040F61850844207DD40F67750844203DCDC
:103B000005203449087024E040F6BD40844207DDBA
:103B100040F61850844203DC04202E49087018E057
:103B2000B4F5466F07DD40F6BD40844203DC032058
:103B3000284908700DE040F60440844206DDB4F5E3
:103B4000466F03DC02202349087002E0012021496E
:103B500008702048007810BD10B51E480078042871
:103B600018DB24201C490870192048700120887037
:103B7000032404E0002018490855601CC4B2122C2C
:103B8000F8DBFEF7C5FC47F23050FCF7CBFAFEF746
:103B9000BFFC17E02420104908701920487000204D
:103BA0008870032404E000200B490855601CC4B24F
:103BB000122CF8DBFEF7ACFC47F23050FCF7B2FAFF
:103BC000FEF7A6FC10BD000000080140000C0140FB
:103BD00058010020A60100202A1A0020012080F3AD
:103BE000138800BF00BF3748006800F4E060364922
:103BF0000843001D3349086000BF704708B54FF403
:103C0000A06001F053FA03208DF8000000208DF829
:103C100001008DF8020001208DF80300684601F0D4
:103C20004AFA08BD10B500202849087001214FF05C
:103C3000C05002F092F8012001F0DDFE03F0A6FA78
:103C40004FF4407002F005F8012002F008F802F08D
:103C500043F902F039F90121022002F0D9F802F00B
:103C600033F940F2826002F009F902F02DF942F2D4
:103C7000283002F011F902F027F9002002F0F1F8E3
:103C800002F022F910BD10B5FFF7B8FFFFF7CAFF29
:103C900010BD00200E490888704710B5022002F0C0
:103CA0003FF970B1022002F04BF902F00DF900204B
:103CB00002F0D7F802F008F904480078401C0349E4
:103CC000087010BD0CED00E00000FA053E02002077
:103CD0001C28004010B58BE04FF48051D24801F011
:103CE000E2FD30B94FF48041CF4801F0DCFD0128FE
:103CF00005D0012001F08EFE01F0A2FE79E0102136
:103D0000CA4801F0ECFD2021C74801F0E8FD642419
:103D100004E0C748FCF706FA601E84B2002CF8D114
:103D20004FF40061C14801F0D8FDFF20FCF7FAF91B
:103D3000FF20FCF7F7F9FF20FCF7F4F9FF20FCF770
:103D4000F1F9FF20FCF7EEF9FF20FCF7EBF9FF207B
:103D5000FCF7E8F9FF20FCF7E5F9FF20FCF7E2F9B2
:103D6000FF20FCF7DFF9FF20FCF7DCF9FF20FCF770
:103D7000D9F9FDF74FF9FDF7E3F9FF20FCF7D2F988
:103D8000FF20FCF7CFF9FF20FCF7CCF90021082039
:103D9000FDF7B7F900210920FDF7B3F900BF0221B3
:103DA000A44802F024FA0028F9D001219E4801F02D
:103DB00094FD10219D4801F090FD782404E09C487A
:103DC000FCF7B0F9601E84B2002CF8D14FF400610A
:103DD000964801F084FD1021944801F080FDF02404
:103DE00004E09348FCF79EF9601E84B2002CF8D1E1
:103DF00072E700BF10BD70B5EBE04FF480518A4808
:103E000001F051FD28B94FF48041874801F04BFD86
:103E100028B1012001F0FEFD01F012FEDAE00021E0
:103E20004FF4003001F099FF1021804801F057FD58
:103E300020217D4801F051FD4FF400617B4801F0E5
:103E40004CFD4FF40041784801F047FDFF20FCF79E
:103E500069F9FF20FCF766F9FF20FCF763F9FF2002
:103E6000FCF760F9FF20FCF75DF9FF20FCF75AF939
:103E7000FDF7D0F8FDF764F9FF20FCF753F9FF20B8
:103E8000FCF750F9FF20FCF74DF900210820FDF761
:103E900038F900210920FDF734F900BF02216548F7
:103EA00002F0A5F90028F9D001215F4801F015FDC5
:103EB0004FF42F651EE0FDF7ADF8FDF741F9002145
:103EC0000820FDF71EF900210920FDF71AF900BFAF
:103ED0000221584802F08BF90028F9D001215248FC
:103EE00001F0FBFCFF20FCF71DF9FF20FCF71AF99D
:103EF000681E85B2002DDED14FF400614B4801F001
:103F0000EEFC4FF40041484801F0E9FCFF20FCF7CB
:103F100009F9FF20FCF706F9FF20FCF703F9FF2061
:103F2000FCF700F9FF20FCF7FDF8FF20FCF7FAF89A
:103F3000FF20FCF7F7F8FF20FCF7F4F8FF20FCF770
:103F4000F1F8FF20FCF7EEF8FF20FCF7EBF8FF207C
:103F5000FCF7E8F81021354801F0BFFC3C2404E0F0
:103F60003348FCF7DFF8601E84B2002CF8D1102132
:103F70002E4801F0B4FCFF20FCF7D4F8FF20FCF73A
:103F8000D1F8FF20FCF7CEF8FF20FCF7CBF8FF209C
:103F9000FCF7C8F8FF20FCF7C5F8FF20FCF7C2F8D3
:103FA000FF20FCF7BFF8FF20FCF7BCF8FF20FCF770
:103FB000B9F8FF20FCF7B6F8FF20FCF7B3F840F2A1
:103FC000DC5404E01A48FCF7ADF8601E84B2002C03
:103FD000F8D112E700BF70BD10B54FF48051124800
:103FE00001F061FC01281DD04FF480510E4801F012
:103FF0005AFC40B94FF480410B4801F054FC10B911
:10400000FFF7F9FE0EE04FF48051074801F04BFC3A
:1040100040B94FF48041044801F045FC012801D12A
:10402000FFF758FE10BD0000000C014000080140E1
:1040300061190100003001402DE9F04F91B00646B2
:104040000F4692469B46DDE91A8900BF5046594605
:10405000DDE91C2303F084FDFD4AFE4BCDE9080198
:1040600003F084FD0022FC4BCDE90A0103F0F0FDD2
:10407000CDE90C01F64AF74B3046394603F076FDA0
:104080000022F54BCDE90A0103F0E2FD06460F469A
:10409000EF4AF04B4046494603F068FD0022EE4BE4
:1040A000CDE90A0103F0D4FD80468946DDE90C0123
:1040B00004F014FECDE906014046494604F00EFE28
:1040C000CDE902013046394604F008FECDE9000191
:1040D000DDE9022303F04AFDCDE90401DDE9062311
:1040E00003F044FDCDE90A014046494604F04CFE88
:1040F000CDE906013046394604F046FECDE904011B
:10410000DDE9062303F032FDCDE90801DDE90A23EC
:1041100003F085FC04460D460022D04B204629467C
:1041200003F070FE02D20024CC4D08E00022CC4BFC
:104130002046294603F052FE01D20024C84D2046F5
:10414000294604F075FBCDE90E010020C549DDE9E3
:104150000E2303F00BFDCDE90E01DDE90E0111B0D8
:10416000BDE8F08F70B504460D464FF000021346CF
:104170002046294603F046FE01D2012070BD0022F0
:1041800013462046294603F029FE01D10020F5E719
:104190004FF0FF30F2E72DE9FC4704460D464FF0A3
:1041A000000213462046294603F02CFE18D820466C
:1041B000294603F0DAFD8246504603F0B8FD8046FA
:1041C00022462B4603F0CFFC06460022A64B03F006
:1041D00019FE03D80AF10100BDE8FC875046FBE751
:1041E00085F000452946204603F0BFFD8246504633
:1041F00003F09DFD064685F00049A04632460B4679
:104200004946204603F0ACFC0022974BCDE9000163
:1042100003F0F8FD03D80AF101004042DCE7CAF1DF
:104220000000D9E72DE9FC5F81468A464FF0000B7C
:1042300028E000241EE0601C09EBC000D0E90073F8
:1042400009EBC40003C83A46CDE9000103F0DAFDEA
:104250000FD209EBC40060C8601C09EBC000D0E9B4
:10426000001009EBC402C2E90010601C09EBC00099
:1042700060C0641CAAF10100A0EB0B00A042DADCD4
:104280000BF1010BAAF101005845D2DCBDE8FC9FFF
:1042900070B505460C46072C02DD0020704970BD44
:1042A00021462846FFF7BEFF224604EBD27040109D
:1042B00005EBC00103C9F2E703B5CFB000204E9073
:1042C0004D904C904B904A901D9007201C900020E0
:1042D0006649CDE91A0166A14F9803F07BFB19905E
:1042E00002201999FDF719F81790199830B117980D
:1042F00020B119991798085C189001E000201890D7
:10430000199800287DD0189841287AD101205A495F
:10431000087003201999FDF700F8199908441390C3
:10432000FDF717F8CDE9140103F01FFD509908605F
:1043300005201999FCF7F1FF199908441390FDF72E
:1043400008F8CDE9140103F010FD50994860199860
:1043500003F05EFB0C2835D91998007A303819998A
:10436000C979303901EB810100EB41004FF4616103
:104370004843149000EBD07042101998807A30387E
:104380001999497A303901EB810100EB4100C0EB0A
:1043900000108000159000EBD07002EB60021998BD
:1043A000007B30381999C97A303901EB810100EB73
:1043B0004100169000EBD07002EB600081B2509883
:1043C000418103E04FF6FF71509841810420199913
:1043D000FCF7A3FF1999095C5098017206201999FE
:1043E000FCF79BFF1999095C5098417250984068FE
:1043F00022490860509800682149086007201999EF
:1044000000E03EE3FCF789FF70B107201999FCF743
:1044100084FF199908441390FDF716F8CDE91401AB
:1044200003F0C2FC17490860FEF71DFE164800782D
:10443000012806D1154800683B2802D10020124906
:1044400008705098007A4E282ED1509800681FE0CE
:10445000182D4454FB210940008066400000F03FC5
:104460000000F0BFAE4D58410000E03F0000454065
:10447000244750524D4300002100002044000020FA
:10448000480000204C00002004000020080000200C
:10449000139003F04CFC0022FE4BCDE9140103F015
:1044A000D7FBCDE91E0111E05098007A53280DD1B9
:1044B000509800684042139003F039FC0022F54BFD
:1044C000CDE9140103F0C4FBCDE91E015098407AF8
:1044D00045280DD150984068139003F028FC002225
:1044E000EC4BCDE9140103F0B3FBCDE9200111E061
:1044F0005098407A57280DD1509840684042139008
:1045000003F015FC0022E34BCDE9140103F0A0FBFE
:10451000CDE92001199803F07BFA0C2827D91998C6
:10452000007A30381999C979303901EB810100EBF3
:1045300041004FF4616148431999897A3039199AD9
:10454000527A303A02EB820201EB4201C1EB0111D7
:1045500000EB81021998007B30381999C97A3039FB
:1045600001EB810100EB41001044459002E04FF067
:10457000FF304590C8480078401CC7490870C748BC
:104580000068052816DCC5480068401CC34908605F
:10459000C34AC24BDDE91E101B6802EBC302C2E92D
:1045A0000010C04ABD4BDDE920011B6802EBC302CD
:1045B00003C23CE0B9480068062838D10020B7495A
:1045C00008601EE0B649B5480068401C01EBC00118
:1045D00003C9B34AB14B1B6802EBC30203C2B14922
:1045E000AE480068401C01EBC00103C9AD4AAB4BAB
:1045F0001B6802EBC30203C2A8480068401CA7491D
:104600000860A64800680528DCDDA54AA34BDDE963
:104610001E101B6802EBC302C2E90010A14A9F4BA7
:10462000DDE920101B6802EBC302C2E90010002084
:104630004E9016E09A494E9801EBC0009A4B06C87E
:104640004E9803EBC00006C096494E9801EBC0009F
:10465000964B06C84E9803EBC00006C04E98401C0F
:104660004E908E494E9809688842E3DD8B48016878
:10467000491C8D48FFF70CFECDE91E0187480168F3
:10468000491C8A48FFF704FECDE9200100201D9057
:104690008748007840B11C98401E864909688842C6
:1046A00002DD01201D9034E0824801681C98081A40
:1046B000401C3C2190FBF1F201FB12007E4901EB12
:1046C000C00103C9CDE912017A4801681C98081A93
:1046D000401C3C2190FBF1F201FB1200774901EBF9
:1046E000C00103C9CDE91001DDE91201CDE90201E4
:1046F000DDE91001CDE900011EA80FC8FFF79CFC01
:10470000CDE91401DDE91A2303F07CFB01D201207D
:104710001D901D9800287CD066480068401C3C21F4
:1047200090FBF1F201FB120162480160634A614BA8
:10473000DDE91E011B6802EBC30203C25E4A5D4B4A
:10474000DDE920101B6802EBC302C2E900105C49DE
:10475000584A4598126841F82200554800780128C7
:1047600002D100204C900BE05148007840B95148EC
:104770000068401C3C2190FBF1F201FB12004C90C0
:104780004C984D904C494D9801EBC00003C849919D
:1047900048904A494D9801EBC00103C947914690A2
:1047A0006CE045494D9801EBC00103C9CDE9020118
:1047B00047994698CDE90001499B489AFFF73CFC90
:1047C000CDE914013C494D9801EBC00103C9CDE985
:1047D0000C01499B489A03F0C3F9CDE90E01FFF79C
:1047E000C1FC119003F0A3FACDE91201DDE9142315
:1047F00003F0BCF9334B4B9A03EBC20203C2499955
:104800004898CDE902012D494D9801EBC00003C83D
:1048100000E0FDE3CDE9000146A80FC8FFF70CFC5E
:10482000CDE9140125494D9801EBC00103C9CDE93B
:104830000C01479B469A03F093F9CDE90E01FFF76F
:1048400091FC119003F073FACDE91201DDE9142314
:1048500003F08CF91C4B4B9A03EBC20203C24B983A
:10486000401C3C2190FBF1F201FB12004B904D9853
:10487000401C90FBF1F201FB12004D900D494D9848
:10488000096888428DD10C494D9801EBC00103C9DC
:104890001CE00000804F224120000020000000208A
:1048A00090070020C80700200008002038080020DA
:1048B000040000200800002060090020400B0020B8
:1048C00070080020200D0020000F0020CDE902011B
:1048D00047994698CDE90001499B489AFFF7ACFB00
:1048E000CDE91401FE494D9801EBC00103C9CDE9A2
:1048F0000C01499B489A03F033F9CDE90E01FFF70B
:1049000031FC119003F013FACDE91201DDE9142313
:1049100003F02CF9F34B4B9A03EBC20203C2499903
:104920004898CDE90201F0494D9801EBC00103C957
:10493000CDE9000146A80FC8FFF77EFBCDE91401C1
:10494000E9494D9801EBC00103C9CDE90C01479B32
:10495000469A03F005F9CDE90E01FFF703FC11902B
:1049600003F0E5F9CDE91201DDE9142303F0FEF8C7
:10497000DE4B4B9A03EBC20203C24B98401C4A9099
:104980004A9803287DD300204090419000213E9119
:104990003F9100BF00BF4E901CE0D2494E9801EB02
:1049A000C00103C9CDE91201CE494E9801EBC00107
:1049B00003C9CDE91001DDE9122303F0D7F8CDE9F1
:1049C0001401419B409A03F02AF8419140904E987F
:1049D000401C4E904A994E988842DED300204E905B
:1049E0000FE0C0494E9801EBC00103C9CDE91401A5
:1049F000DDE93E2303F013F8CDE93E014E98401C5B
:104A00004E904A994E988842EBD3DDE93E23CDE99A
:104A10003C234A9803F09CF9CDE93A01DDE93C23B7
:104A2000DDE93E0103F0A2F8CDE91401DDE93A2306
:104A30004199409803F09AF8CDE91201DDE9142379
:104A400003F08EF843914290439B429ADDE93A018C
:104A500003F0FEF8CDE93801DDE93E0181F00041C7
:104A6000CDE91401439B429A03F0F2F8CDE93601F7
:104A700000BF00BF002034903590329033904E90AC
:104A80001DE076E199494E9801EBC00103C9CDE9DB
:104A9000120194494E9801EBC00103C9CDE9100100
:104AA000DDE9122303F062F8CDE91401DDE93423D6
:104AB00002F0B5FFCDE934014E98401C4E904A9962
:104AC0004E988842DED300204E900FE087494E98E2
:104AD00001EBC00103C9CDE91401DDE9322302F085
:104AE0009EFFCDE932014E98401C4E904A994E9857
:104AF0008842EBD3DDE93223DDE9360103F036F8F5
:104B0000CDE91401DDE93423DDE9380103F02EF8A5
:104B1000CDE91201DDE9142302F081FFCDE9300176
:104B2000DDE9300103F0C8FFCDE92C010022134676
:104B3000DDE92C0103F066F92DD86D4A6D4BDDE9F6
:104B40002C0103F04BF926D868494B9801EBC001C2
:104B500003C9CDE9120163494B9801EBC00103C9B8
:104B6000CDE91001DDE9122302F059FF00221346BE
:104B7000CDE9140103F046F904D2DDE92C01CDE9B9
:104B80002C013CE05A4A5C4BDDE92C0102F0E8FFC5
:104B9000CDE92C0133E0564A584BDDE92C0103F0F6
:104BA00031F92CD800221346DDE92C0103F016F967
:104BB00025D24E494B9801EBC00103C9CDE9120142
:104BC00048494B9801EBC00103C9CDE91001DDE96B
:104BD000122302F0C5FF00221346CDE9140103F0B1
:104BE00011F904D2DDE92C01CDE92C0107E0404A9E
:104BF000414BDDE92C0102F012FFCDE92C013C4ACA
:104C00003F4BDDE92C0103F0FDF80FD8384A394B52
:104C1000DDE92C0103F0E2F808D235483549DDE939
:104C20002C2302F09DFFCDE92E0107E035483649DF
:104C3000DDE92C2302F094FFCDE92E01002213467A
:104C4000324903C903F0CAF803D1314831492F4A28
:104C500003C22E4830490CC803C902F0F9FFCDE960
:104C6000140103F029FF2D4A03C200221346439981
:104C7000429803F0B3F87CD0DDE92E0103F032FA5C
:104C8000002876D1DDE92C0103F02CFA0028F8D1B8
:104C9000224903C903F026FA0028F2D1144A164B20
:104CA000DDE92E0102F0D4FF00221D4BCDE91001F9
:104CB00002F05CFF00221B4BCDE9120102F056FF0F
:104CC000CDE91401FFF767FA174908601248014659
:104CD0000CC803C902F04AFFCDE912010B4825E0D8
:104CE00060090020200D0020400B0020000F002054
:104CF000182D4454FB21F93FFB210940FB21F9BF4A
:104D0000FB2109C05E3855297A6A1F401000002037
:104D1000FCA9F1D24D62503F180000207001002024
:104D200000806640000024405000002001460CC86E
:104D300003C902F01BFFCDE91001DDE9122302F0E7
:104D40006EFECDE9140104F077F8BB4A03C2BB48FC
:104D50000CC8DDE92C0102F062FECDE9120104F07D
:104D600013F8CDE91401B4480CC8149802F0FEFE03
:104D700000E05DE1CDE92801B0480CC8DDE92C0177
:104D800002F04DFECDE9120103F0A8FFCDE91401B8
:104D9000A9480CC8149802F0E9FECDE926010022CA
:104DA000A74BDDE9280102F053FFA64AA64BCDE947
:104DB0000C0102F04DFF0022A44BCDE90E0102F0E0
:104DC000D5FECDE91001A248A249096800EBC10156
:104DD00003C9CDE90E01DDE9102302F0C1FE002276
:104DE0009D4BCDE9120102F0C1FECDE9140102F0A4
:104DF000DBFF9A49086096489649096800EBC101B3
:104E000003C90022914BCDE9100102F021FF8D4A28
:104E10008D4BCDE9120102F0A9FECDE9140103F09A
:104E2000B3FFCDE924018A498A48006801EBC0013B
:104E300003C90022854BCDE9100102F009FF814A28
:104E4000814BCDE9120102F091FECDE9140103F08E
:104E500045FFCDE9220179480CC8DDE92E0102F0B9
:104E60007FFECDE92A01774A7D4BDDE92A0102F078
:104E7000C9FF08D2734A7A4BDDE92A0102F070FEBD
:104E8000CDE92A010EE06F4A764BDDE92A0102F0F6
:104E9000A5FF07D26B4A724BDDE92A0102F0BFFD84
:104EA000CDE92A0100221346DDE92A0102F0AAFF1A
:104EB00055D8644A644BDDE92A0102F08FFF4ED2D7
:104EC000DDE924231046194602F050FE00225C4B17
:104ED000CDE90401DDE9260102F0BAFECDE90001C9
:104EE00003F0FCFECDE90201DDE9042302F038FE07
:104EF000CDE90601DDE9222302F0AAFECDE9080191
:104F0000DDE9222302F0A4FECDE90A0103F090FCC2
:104F10004C4A4D4BCDE90C0102F09AFE00224B4B5E
:104F2000CDE90E0102F022FECDE910014E484949BB
:104F3000096800EBC10103C9CDE90E01DDE91023C9
:104F400002F00EFE0022444BCDE9120102F00EFEEB
:104F5000CDE9140102F028FF444908604DE0DDE985
:104F600024231046194602F001FE0022344BCDE9FD
:104F70000401DDE9260102F06BFECDE9000103F03A
:104F8000ADFECDE90201DDE9042302F0E9FDCDE942
:104F90000601DDE9222302F05BFECDE90801DDE92F
:104FA000222302F055FECDE90A0103F041FC254A17
:104FB000254BCDE90C0102F04BFE0022234BCDE93D
:104FC0000E0102F0D3FDCDE91001274821490968FF
:104FD00000EBC10103C9CDE90E01DDE9102302F0A8
:104FE0001EFD00221C4BCDE9120102F0BFFDCDE9F0
:104FF000140102F0D9FE1D4908601C4800681C49D4
:105000000860164800681B4908601B48006800E0FB
:1050100002E01A4908600BE015480068134908606F
:10502000144800680D490860144800681249086077
:10503000002051B000BD0000680100207001002078
:10504000AE4D5841182D4454FB2109400080664064
:10505000400B002008000020804F22414800002023
:10506000FB211940FB2119C06009002044000020E9
:10507000780100207C0100205000002080010020E9
:1050800045F25552084B1A601A46506091604AF634
:10509000AA221A604CF6CC421A6070474AF6AA203F
:1050A0000149086070470000003000403149014369
:1050B000314A1160704770B5002100230F22C47877
:1050C0000CB32D4C246804F4E064C4F5E064210AB8
:1050D000C1F10403CA40447804FA03F1847814400F
:1050E00021430901254C0678A155047804F01F05D9
:1050F0000124AC4005786D114FF0E02606EB8505E4
:10510000C5F8004109E0047804F01F050124AC4013
:105110001B4D0678761145F8264070BD194A0A40A5
:105120000243154B1B1F1A60704739B1124A121DFA
:1051300012680243104B1B1D1A6006E00E4A121D36
:10514000126882430C4B1B1D1A607047042808D15B
:105150004FF0E021096941F004014FF0E0221161B4
:1051600007E04FF0E021096921F004014FF0E0224F
:10517000116170470000FA050CED00E000E400E06A
:1051800080E100E080FFFF1F01460020FB4A10681D
:1051900000F03800084310607047F849096821F0B2
:1051A0000801F64A11601146096801431160704711
:1051B000F249096821F01001F04A116011460968AE
:1051C000014311607047EE48EC494860ED48486083
:1051D0007047EA48006940F08000E849086170477C
:1051E0000420E649C96811F0010F01D001200EE04A
:1051F000E249C96811F0040F01D0022007E0DF493D
:10520000C96811F0100F01D0032000E0042070479E
:1052100008B500200090FF20009002E00098401E9A
:10522000009000980028F9D108BD70B50446042507
:10523000FFF7D6FF054605E0FFF7EAFFFFF7D0FFCF
:105240000546641E012D01D1002CF5D104B90525B8
:10525000284670BD70B50546042440F6FF70FFF780
:10526000E4FF0446042C19D1C448006940F0020050
:10527000C249086108464561006940F04000086184
:1052800040F6FF70FFF7D1FF0446012C06D0BB4863
:10529000006941F6FD710840B8490861204670BDBB
:1052A00010B5042440F6FF70FFF7BFFF0446042C3E
:1052B00018D1B248006940F00400B04908610846BE
:1052C000006940F04000086140F6FF70FFF7ADFF55
:1052D0000446012C06D0A948006941F6FB7108403C
:1052E000A6490861204610BD10B5042440F6FF70A1
:1052F000FFF79BFF0446042C3BD1A1489F498860DF
:10530000A04888600846006940F02000086108460F
:10531000006940F04000086140F6FF70FFF785FF2C
:105320000446042C1CD19548006941F6DF71084001
:10533000924908610846006940F010000861A52004
:10534000914908800F20FFF770FF0446012C10D010
:105350008A48006941F6EF7108408849086108E011
:10536000012C06D08548006941F6EF710840834959
:105370000861204610BD70B505460E4604240F2076
:10538000FFF753FF0446042C25D17C48006940F008
:1053900001007A4908612E800F20FFF746FF04467E
:1053A000042C0FD1300C68800F20FFF73EFF04461D
:1053B000012C10D07148006941F6FE7108406F4918
:1053C000086108E0012C06D06C48006941F6FE71C6
:1053D00008406A490861204670BD70B505460E4612
:1053E00004240F20FFF721FF0446042C13D1634847
:1053F000006940F00100614908612E800F20FFF72D
:1054000014FF0446012C06D05C48006941F6FE7189
:1054100008405A490861204670BD70B505460E46E1
:1054200004240F20FFF701FF0446042C17D1544831
:1054300052498860534888600846006940F010006F
:1054400008612E800F20FFF7F0FE0446012C06D0E5
:105450004A48006941F6EF71084048490861204612
:1054600070BD2DE9F04704464FF6FF763746B0464B
:10547000B1460425E443E6B2C4F30727C4F3074862
:105480004FEA14690F20FFF7D0FE0546042D40D1E6
:105490003B483A4988603B4888600846006940F0CC
:1054A00010000861FF2E06D03748083006800F2014
:1054B000FFF7BBFE0546042D08D1FF2F06D032486A
:1054C0000A3007800F20FFF7B0FE0546042D0AD1F1
:1054D000B8F1FF0F07D02C480C30A0F800800F2047
:1054E000FFF7A3FE0546042D0AD1B9F1FF0F07D03F
:1054F00025480E30A0F800900F20FFF796FE0546D5
:10550000012D06D01D48006941F6EF7108401B4986
:1055100008612846BDE8F08770B50546042440F6CA
:10552000FF70FFF782FE0446042C4AD11448134949
:105530008860144888600846006940F020000861CF
:105540000846006940F04000086140F6FF70FFF730
:105550006CFE0446042C2BD10848006941F6DF712B
:105560000840064908610846006940F010000861DB
:1055700065B10020044908800BE0000000200240D3
:1055800023016745AB89EFCD00F8FF1FA5204549F2
:10559000088040F6FF70FFF748FE0446012C10D04B
:1055A0004148006941F6EF7108403F49086108E051
:1055B000012C06D03C48006941F6DF7108403A49A9
:1055C0000861204670BD2DE9F04107460D4616469C
:1055D0000424364834498860354888600F20FFF736
:1055E00024FE0446042C1AD12F48006940F0100014
:1055F0002D49086147EA0500304340F0F800294989
:10560000891C08800F20FFF710FE0446012C06D0ED
:105610002548006941F6EF7108402349086120469A
:10562000BDE8F0812048C069800870471E48006AC4
:10563000704700201C49C96911F0020F01D00120F8
:1056400000E00020704700201749096811F0200F82
:1056500001D0012000E00020704729B1124A1269F0
:105660000243114B1A6104E00F4A126982430E4B48
:105670001A61704701460020012908D10A4AD269FF
:1056800012F0010F01D0012008E0002006E0064AD8
:10569000D2680A4201D0012000E000207047024990
:1056A000C860704700F8FF1F0020024023016745D3
:1056B000AB89EFCD10B50446C549601A8C422FD096
:1056C00009DCC448201810D0B0F5806F16D0B0F5B2
:1056D000006F4AD11BE0B0F5806F2AD0B0F5006FA3
:1056E00030D0B0F5406F40D135E00121042000F00A
:1056F00041FB0021042000F03DFB37E001210820A0
:1057000000F038FB0021082000F034FB2EE00121DE
:10571000102000F02FFB0021102000F02BFB25E0D3
:105720000121202000F026FB0021202000F022FB98
:105730001CE00121402000F01DFB0021402000F072
:1057400019FB13E00121802000F014FB00218020D0
:1057500000F010FB0AE00121080200F00BFB002121
:105760004FF4807000F006FB00E000BF00BF10BDEA
:1057700010B50121084600F0FDFA0021012000F0DB
:10578000F9FA10BD2DE9F04102460025002600205F
:1057900000230024002791F803C00CF00F0591F8B6
:1057A00003C01CF0100F03D091F802C04CEA0505AD
:1057B00091F800C0BCF1000F31D0146800202BE03C
:1057C0004FF0010C0CFA00F3B1F800C00CEA03062C
:1057D0009E4220D183004FF00F0C0CFA03F7BC431C
:1057E00005FA03FC4CEA040491F803C0BCF1280F4D
:1057F00006D14FF0010C0CFA00FCC2F814C00AE00C
:1058000091F803C0BCF1480F05D14FF0010C0CFA20
:1058100000FCC2F810C0401C0828D1D31460B1F8B5
:1058200000C0BCF1FF0F34DD546800202EE000F111
:10583000080C4FF0010808FA0CF3B1F800C00CEAAC
:1058400003069E4221D183004FF00F0C0CFA03F7A0
:10585000BC4305FA03FC4CEA040491F803C0BCF114
:10586000280F05D100F1080C08FA0CF8C2F81480D2
:1058700091F803C0BCF1480F07D100F1080C4FF0BC
:10588000010808FA0CF8C2F81080401C0828CED392
:105890005460BDE8F0814FF6FF71018002218170F4
:1058A0000421C17070470246002093680B4201D06A
:1058B000012000E0002070470146886880B27047F0
:1058C00002460020D3680B4201D0012000E00020F6
:1058D00070470146C86880B27047016170474161F6
:1058E00070470AB1016100E041617047C1607047D3
:1058F0004FF480320A4382618161826182698269E8
:10590000704702460020344B18684FF680731840E9
:1059100040EA02100843304B186070472F49C861B5
:105920007047F0B50A4600230024002100252A4EC6
:105930007168C0F3034583B200F44016B6F5401F0A
:1059400008D121F07061244E766826F07066224FEF
:105950007E6012E000F48016B6F5801F06D10326A3
:1059600006FA05F4A14341F0706106E0460D3601E8
:1059700003FA06F6B14341F0706122B1460D3601DB
:1059800003FA06F63143144E7160F0BD30B50022C3
:105990008B071C0F0F2303FA04F20F4B08338C10F4
:1059A00053F8243093430C4C08348D1044F82530C0
:1059B00023468C1053F824308C07240F00FA04F48B
:1059C0002343054C08348D1044F8253030BD0000C9
:1059D0000014014000F8FEBF00000140000020421A
:1059E00010B50121080700F0D2F900214FF08050D6
:1059F00000F0CDF910BD1B490862704719490861D4
:105A0000704701460020184A106820F0E000084363
:105A100010607047704710B502460020124B18689E
:105A200020F0030010431860104B1B6843F0040380
:105A30000E4C2360012901D130BF00E020BF10BD12
:105A4000704701460020084A52680A4201D00120EE
:105A500000E0002070470449096841EA8001024AD9
:105A60001160704700000E420070004010ED00E031
:105A7000DC48006840F00100DA49086008464068E8
:105A8000D9490840D749486008460068D7490840C6
:105A9000D44908600846006820F480200860084661
:105AA000406820F4FE004860002088607047CD49BF
:105AB000096821F48031CB4A11601146096821F44C
:105AC00080211160B0F5803F03D0B0F5802F0ED15A
:105AD00006E0C449096841F48031C24A116007E018
